{"contracts/PropertyRegistry.sol":{"PropertyRegistry":{"abi":[{"inputs":[{"internalType":"address","name":"admin","type":"address"}],"stateMutability":"nonpayable","type":"constructor"},{"anonymous":false,"inputs":[{"indexed":true,"internalType":"uint256","name":"id","type":"uint256"},{"indexed":true,"internalType":"address","name":"buyer","type":"address"}],"name":"BuyerApproved","type":"event"},{"anonymous":false,"inputs":[{"indexed":true,"internalType":"uint256","name":"id","type":"uint256"},{"indexed":true,"internalType":"address","name":"seller","type":"address"}],"name":"Cancelled","type":"event"},{"anonymous":false,"inputs":[{"indexed":true,"internalType":"uint256","name":"id","type":"uint256"},{"indexed":true,"internalType":"address","name":"government","type":"address"}],"name":"GovernmentSealed","type":"event"},{"anonymous":false,"inputs":[{"indexed":true,"internalType":"uint256","name":"id","type":"uint256"},{"indexed":true,"internalType":"address","name":"notary","type":"address"}],"name":"NotaryApproved","type":"event"},{"anonymous":false,"inputs":[{"indexed":true,"internalType":"uint256","name":"id","type":"uint256"},{"indexed":true,"internalType":"address","name":"oldSeller","type":"address"},{"indexed":true,"internalType":"address","name":"newSeller","type":"address"}],"name":"OwnershipTransferred","type":"event"},{"anonymous":false,"inputs":[{"indexed":true,"internalType":"uint256","name":"id","type":"uint256"},{"indexed":true,"internalType":"address","name":"seller","type":"address"},{"indexed":true,"internalType":"address","name":"buyer","type":"address"},{"indexed":false,"internalType":"address","name":"notary","type":"address"},{"indexed":false,"internalType":"bytes32","name":"docHash","type":"bytes32"}],"name":"PropertyRegistered","type":"event"},{"anonymous":false,"inputs":[{"indexed":true,"internalType":"bytes32","name":"role","type":"bytes32"},{"indexed":true,"internalType":"bytes32","name":"previousAdminRole","type":"bytes32"},{"indexed":true,"internalType":"bytes32","name":"newAdminRole","type":"bytes32"}],"name":"RoleAdminChanged","type":"event"},{"anonymous":false,"inputs":[{"indexed":true,"internalType":"bytes32","name":"role","type":"bytes32"},{"indexed":true,"internalType":"address","name":"account","type":"address"},{"indexed":true,"internalType":"address","name":"sender","type":"address"}],"name":"RoleGranted","type":"event"},{"anonymous":false,"inputs":[{"indexed":true,"internalType":"bytes32","name":"role","type":"bytes32"},{"indexed":true,"internalType":"address","name":"account","type":"address"},{"indexed":true,"internalType":"address","name":"sender","type":"address"}],"name":"RoleRevoked","type":"event"},{"inputs":[],"name":"DEFAULT_ADMIN_ROLE","outputs":[{"internalType":"bytes32","name":"","type":"bytes32"}],"stateMutability":"view","type":"function"},{"inputs":[],"name":"GOVERNMENT_ROLE","outputs":[{"internalType":"bytes32","name":"","type":"bytes32"}],"stateMutability":"view","type":"function"},{"inputs":[],"name":"NOTARY_ROLE","outputs":[{"internalType":"bytes32","name":"","type":"bytes32"}],"stateMutability":"view","type":"function"},{"inputs":[{"internalType":"uint256","name":"propertyId","type":"uint256"}],"name":"buyerApprove","outputs":[],"stateMutability":"nonpayable","type":"function"},{"inputs":[{"internalType":"address","name":"","type":"address"},{"internalType":"uint256","name":"","type":"uint256"}],"name":"byBuyer","outputs":[{"internalType":"uint256","name":"","type":"uint256"}],"stateMutability":"view","type":"function"},{"inputs":[{"internalType":"address","name":"","type":"address"},{"internalType":"uint256","name":"","type":"uint256"}],"name":"bySeller","outputs":[{"internalType":"uint256","name":"","type":"uint256"}],"stateMutability":"view","type":"function"},{"inputs":[{"internalType":"uint256","name":"propertyId","type":"uint256"}],"name":"cancel","outputs":[],"stateMutability":"nonpayable","type":"function"},{"inputs":[{"internalType":"uint256","name":"propertyId","type":"uint256"}],"name":"getProperty","outputs":[{"components":[{"internalType":"uint256","name":"id","type":"uint256"},{"internalType":"address","name":"seller","type":"address"},{"internalType":"address","name":"buyer","type":"address"},{"internalType":"address","name":"notary","type":"address"},{"internalType":"address","name":"government","type":"address"},{"internalType":"bytes32","name":"docHash","type":"bytes32"},{"internalType":"enum PropertyRegistry.Status","name":"status","type":"uint8"},{"internalType":"uint64","name":"createdAt","type":"uint64"},{"internalType":"uint64","name":"updatedAt","type":"uint64"},{"internalType":"bool","name":"buyerApproved","type":"bool"},{"internalType":"bool","name":"notaryApproved","type":"bool"},{"internalType":"bool","name":"governmentSealed","type":"bool"}],"internalType":"struct PropertyRegistry.Property","name":"","type":"tuple"}],"stateMutability":"view","type":"function"},{"inputs":[{"internalType":"bytes32","name":"role","type":"bytes32"}],"name":"getRoleAdmin","outputs":[{"internalType":"bytes32","name":"","type":"bytes32"}],"stateMutability":"view","type":"function"},{"inputs":[{"internalType":"uint256","name":"propertyId","type":"uint256"}],"name":"governmentSeal","outputs":[],"stateMutability":"nonpayable","type":"function"},{"inputs":[{"internalType":"bytes32","name":"role","type":"bytes32"},{"internalType":"address","name":"account","type":"address"}],"name":"grantRole","outputs":[],"stateMutability":"nonpayable","type":"function"},{"inputs":[{"internalType":"bytes32","name":"role","type":"bytes32"},{"internalType":"address","name":"account","type":"address"}],"name":"hasRole","outputs":[{"internalType":"bool","name":"","type":"bool"}],"stateMutability":"view","type":"function"},{"inputs":[{"internalType":"address","name":"buyer","type":"address"}],"name":"listByBuyer","outputs":[{"internalType":"uint256[]","name":"","type":"uint256[]"}],"stateMutability":"view","type":"function"},{"inputs":[{"internalType":"address","name":"seller","type":"address"}],"name":"listBySeller","outputs":[{"internalType":"uint256[]","name":"","type":"uint256[]"}],"stateMutability":"view","type":"function"},{"inputs":[{"internalType":"uint256","name":"propertyId","type":"uint256"}],"name":"markCompleted","outputs":[],"stateMutability":"nonpayable","type":"function"},{"inputs":[{"internalType":"uint256","name":"propertyId","type":"uint256"}],"name":"notaryApprove","outputs":[],"stateMutability":"nonpayable","type":"function"},{"inputs":[{"internalType":"bytes32","name":"docHash","type":"bytes32"},{"internalType":"address","name":"buyer","type":"address"},{"internalType":"address","name":"notary","type":"address"}],"name":"registerProperty","outputs":[{"internalType":"uint256","name":"","type":"uint256"}],"stateMutability":"nonpayable","type":"function"},{"inputs":[{"internalType":"bytes32","name":"role","type":"bytes32"},{"internalType":"address","name":"account","type":"address"}],"name":"renounceRole","outputs":[],"stateMutability":"nonpayable","type":"function"},{"inputs":[{"internalType":"bytes32","name":"role","type":"bytes32"},{"internalType":"address","name":"account","type":"address"}],"name":"revokeRole","outputs":[],"stateMutability":"nonpayable","type":"function"},{"inputs":[{"internalType":"bytes4","name":"interfaceId","type":"bytes4"}],"name":"supportsInterface","outputs":[{"internalType":"bool","name":"","type":"bool"}],"stateMutability":"view","type":"function"},{"inputs":[{"internalType":"uint256","name":"propertyId","type":"uint256"},{"internalType":"address","name":"newSeller","type":"address"}],"name":"transferOwnership","outputs":[],"stateMutability":"nonpayable","type":"function"}],"evm":{"bytecode":{"linkReferences":{},"object":"60806040523480156200001157600080fd5b5060405162001be438038062001be48339810160408190526200003491620000ed565b60018055620000456000826200004c565b506200011f565b6000828152602081815260408083206001600160a01b038516845290915290205460ff16620000e9576000828152602081815260408083206001600160a01b03851684529091529020805460ff19166001179055620000a83390565b6001600160a01b0316816001600160a01b0316837f2f8788117e7eff1d82e926ec794901d17c78024a50270940304540a733656f0d60405160405180910390a45b5050565b6000602082840312156200010057600080fd5b81516001600160a01b03811681146200011857600080fd5b9392505050565b611ab5806200012f6000396000f3fe608060405234801561001057600080fd5b50600436106101375760003560e01c8063910b2882116100b8578063c48b0baa1161007c578063c48b0baa146102b1578063cac5c512146102d8578063d547741f146102eb578063d7ff4020146102fe578063dbe5172114610311578063eb73425d1461032457600080fd5b8063910b28821461024957806391d148541461025c5780639cbed5821461026f578063a217fddf14610296578063bc7125381461029e57600080fd5b80632f2ff15d116100ff5780632f2ff15d146101dd57806332665ffb146101f057806336568abe1461021057806340e58ee51461022357806374569c911461023657600080fd5b806301ffc9a71461013c578063031306ec14610164578063248a9ca31461018457806329507f73146101b557806329f9766e146101ca575b600080fd5b61014f61014a366004611670565b610337565b60405190151581526020015b60405180910390f35b6101776101723660046116b6565b61036e565b60405161015b91906116d1565b6101a7610192366004611715565b60009081526020819052604090206001015490565b60405190815260200161015b565b6101c86101c336600461172e565b6103da565b005b6101a76101d836600461175a565b610608565b6101c86101eb36600461172e565b610639565b6102036101fe366004611715565b61065e565b60405161015b91906117bc565b6101c861021e36600461172e565b6107e8565b6101c8610231366004611715565b610866565b6101c8610244366004611715565b6109d8565b6101c8610257366004611715565b610b5c565b61014f61026a36600461172e565b610cdd565b6101a77fd9d062b29c8756d894f301c5167d214c34d627724cd7fc859ab9329c9330cf5181565b6101a7600081565b6101776102ac3660046116b6565b610d06565b6101a77f014df5ee2861d7f34562399ffa112fc59b51f810d2b875c3609ba0c31ac873d081565b6101c86102e6366004611715565b610d70565b6101c86102f936600461172e565b610eeb565b6101a761030c36600461175a565b610f10565b6101a761031f3660046118ae565b610f2c565b6101c8610332366004611715565b611170565b60006001600160e01b03198216637965db0b60e01b148061036857506301ffc9a760e01b6001600160e01b03198316145b92915050565b6001600160a01b0381166000908152600460209081526040918290208054835181840281018401909452808452606093928301828280156103ce57602002820191906000526020600020905b8154815260200190600101908083116103ba575b50505050509050919050565b6000828152600360205260408120548391036104115760405162461bcd60e51b8152600401610408906118ea565b60405180910390fd5b61041961131a565b600083815260036020526040902060018101546001600160a01b031633146104835760405162461bcd60e51b815260206004820152601b60248201527f50726f70657274793a2063616c6c6572206e6f742073656c6c657200000000006044820152606401610408565b6003600682015460ff16600581111561049e5761049e611784565b14806104c257506004600682015460ff1660058111156104c0576104c0611784565b145b61050e5760405162461bcd60e51b815260206004820152601760248201527f50726f70657274793a206e6f742066696e616c697a65640000000000000000006044820152606401610408565b6001600160a01b03831661055d5760405162461bcd60e51b815260206004820152601660248201527550726f70657274793a207a65726f206164647265737360501b6044820152606401610408565b600180820180546001600160a01b038681166001600160a01b03198316811790935560068501805467ffffffffffffffff4216600160481b0267ffffffffffffffff60481b1990911617905560008381526004602090815260408083208054978801815583529082209095018990559351911692839188917f16b85f49bf01212961345d3016c9a531894accf62eb7680f2045d79185cc0ec091a4505061060360018055565b505050565b6004602052816000526040600020818154811061062457600080fd5b90600052602060002001600091509150505481565b60008281526020819052604090206001015461065481611373565b6106038383611380565b6040805161018081018252600080825260208201819052918101829052606081018290526080810182905260a0810182905260c0810182905260e081018290526101008101829052610120810182905261014081018290526101608101919091526000828152600360205260408120548391036106ed5760405162461bcd60e51b8152600401610408906118ea565b6000838152600360208181526040928390208351610180810185528154815260018201546001600160a01b039081169382019390935260028201548316948101949094529182015481166060840152600482015416608083015260058082015460a0840152600682015460c084019160ff9091169081111561077157610771611784565b600581111561078257610782611784565b81526006919091015467ffffffffffffffff610100820481166020840152600160481b820416604083015260ff600160881b8204811615156060840152600160901b8204811615156080840152600160981b90910416151560a090910152915050919050565b6001600160a01b03811633146108585760405162461bcd60e51b815260206004820152602f60248201527f416363657373436f6e74726f6c3a2063616e206f6e6c792072656e6f756e636560448201526e103937b632b9903337b91039b2b63360891b6064820152608401610408565b6108628282611404565b5050565b6000818152600360205260408120548291036108945760405162461bcd60e51b8152600401610408906118ea565b61089c61131a565b600082815260036020526040902060018101546001600160a01b031633146109065760405162461bcd60e51b815260206004820152601b60248201527f50726f70657274793a2063616c6c6572206e6f742073656c6c657200000000006044820152606401610408565b6000600682015460ff16600581111561092157610921611784565b1461096e5760405162461bcd60e51b815260206004820152601b60248201527f50726f70657274793a2063616e6e6f742063616e63656c206e6f7700000000006044820152606401610408565b60068101805467ffffffffffffffff4216600160481b0270ffffffffffffffff0000000000000000ff19909116176005179055604051339084907f26deca31ff8139a06c52453ce8985d34f7648a6d9af1d283c4063d052c355a0f90600090a35061086260018055565b600081815260036020526040812054829103610a065760405162461bcd60e51b8152600401610408906118ea565b610a0e61131a565b600082815260036020526040902060028101546001600160a01b03163314610a785760405162461bcd60e51b815260206004820152601a60248201527f50726f70657274793a2063616c6c6572206e6f742062757965720000000000006044820152606401610408565b6001600682015460ff166005811115610a9357610a93611784565b14610ae05760405162461bcd60e51b815260206004820152601860248201527f50726f70657274793a2077616974696e67206e6f7461727900000000000000006044820152606401610408565b60068101805467ffffffffffffffff4216600160481b0271ffffffffffffffffff0000000000000000ff199091161771010000000000000000000000000000000002179055604051339084907fcf93094854a81f1a3d7c99633cff4dac98837e96ebc9d5529993dea33242cc6790600090a35061086260018055565b600081815260036020526040812054829103610b8a5760405162461bcd60e51b8152600401610408906118ea565b610b9261131a565b6000828152600360208190526040909120908101546001600160a01b03163314610bfe5760405162461bcd60e51b815260206004820152601b60248201527f50726f70657274793a2063616c6c6572206e6f74206e6f7461727900000000006044820152606401610408565b6000600682015460ff166005811115610c1957610c19611784565b14610c5f5760405162461bcd60e51b815260206004820152601660248201527550726f70657274793a2077726f6e672073746174757360501b6044820152606401610408565b60068101805467ffffffffffffffff4216600160481b0272ff00ffffffffffffffff0000000000000000ff19909116177201000000000000000000000000000000000001179055604051339084907f82866cd1a9b1d6aa81cf0e474ed67a8f5192e099b8254c88f32c1e44af73a31790600090a35061086260018055565b6000918252602082815260408084206001600160a01b0393909316845291905290205460ff1690565b6001600160a01b0381166000908152600560209081526040918290208054835181840281018401909452808452606093928301828280156103ce57602002820191906000526020600020908154815260200190600101908083116103ba5750505050509050919050565b600081815260036020526040812054829103610d9e5760405162461bcd60e51b8152600401610408906118ea565b610da661131a565b600082815260036020819052604090912090600682015460ff166005811115610dd157610dd1611784565b14610e155760405162461bcd60e51b8152602060048201526014602482015273141c9bdc195c9d1e4e881b9bdd081cd9585b195960621b6044820152606401610408565b60018101546001600160a01b0316331480610e3c575060028101546001600160a01b031633145b80610e6c5750610e6c7fd9d062b29c8756d894f301c5167d214c34d627724cd7fc859ab9329c9330cf5133610cdd565b610eb15760405162461bcd60e51b8152602060048201526016602482015275141c9bdc195c9d1e4e881d5b985d5d1a1bdc9a5e995960521b6044820152606401610408565b600601805467ffffffffffffffff4216600160481b0270ffffffffffffffff0000000000000000ff19909116176004179055505060018055565b600082815260208190526040902060010154610f0681611373565b6106038383611404565b6005602052816000526040600020818154811061062457600080fd5b6000610f3661131a565b6001600160a01b03831615801590610f5657506001600160a01b03821615155b610f9b5760405162461bcd60e51b815260206004820152601660248201527550726f70657274793a207a65726f206164647265737360501b6044820152606401610408565b610fc57f014df5ee2861d7f34562399ffa112fc59b51f810d2b875c3609ba0c31ac873d083610cdd565b6110115760405162461bcd60e51b815260206004820152601f60248201527f50726f70657274793a206e6f74617279206e6f7420617574686f72697a6564006044820152606401610408565b600280549060006110218361192d565b909155505060028054600081815260036020818152604080842085815560018082018054336001600160a01b0319918216811790925598830180548a166001600160a01b038e81169182179092559684018054909a16908c1690811790995560058084018e905560068401805470ffffffffffffffffffffffffffffffffff19811667ffffffffffffffff60481b194267ffffffffffffffff9081166101009081029283169390931768ffffffffffffffffff19909416919091179190910416600160481b021790558188526004865284882080548085018255908952868920018990558688528552838720805492830181558752958490200186905581519687529186018a905280519495919492939286927fc1aff1652b20e14e1d7f2d339ce74e3df41e7fb37adeece0b0104a3ea39c607a92908290030190a450905061116960018055565b9392505050565b60008181526003602052604081205482910361119e5760405162461bcd60e51b8152600401610408906118ea565b6111a661131a565b60008281526003602052604090206111de7fd9d062b29c8756d894f301c5167d214c34d627724cd7fc859ab9329c9330cf5133610cdd565b61122a5760405162461bcd60e51b815260206004820152601860248201527f50726f70657274793a2063616c6c6572206e6f7420676f7600000000000000006044820152606401610408565b6002600682015460ff16600581111561124557611245611784565b146112925760405162461bcd60e51b815260206004820152601760248201527f50726f70657274793a2077616974696e672062757965720000000000000000006044820152606401610408565b6004810180546001600160a01b031916339081179091556006820180546003600160981b0173ff0000ffffffffffffffff0000000000000000ff19909116600160481b4267ffffffffffffffff16021717905560405184907f8141be8ec42735c6d9b070a4eec645cee34c78cf73c7f5f23ae5de424dc7963f90600090a35061086260018055565b60026001540361136c5760405162461bcd60e51b815260206004820152601f60248201527f5265656e7472616e637947756172643a207265656e7472616e742063616c6c006044820152606401610408565b6002600155565b61137d8133611469565b50565b61138a8282610cdd565b610862576000828152602081815260408083206001600160a01b03851684529091529020805460ff191660011790556113c03390565b6001600160a01b0316816001600160a01b0316837f2f8788117e7eff1d82e926ec794901d17c78024a50270940304540a733656f0d60405160405180910390a45050565b61140e8282610cdd565b15610862576000828152602081815260408083206001600160a01b0385168085529252808320805460ff1916905551339285917ff6391f5c32d9c69d2a47ea670b442974b53935d1edc7fd64eb21e047a839171b9190a45050565b6114738282610cdd565b61086257611480816114c2565b61148b8360206114d4565b60405160200161149c92919061196a565b60408051601f198184030181529082905262461bcd60e51b8252610408916004016119df565b60606103686001600160a01b03831660145b606060006114e3836002611a12565b6114ee906002611a29565b67ffffffffffffffff81111561150657611506611a3c565b6040519080825280601f01601f191660200182016040528015611530576020820181803683370190505b509050600360fc1b8160008151811061154b5761154b611a52565b60200101906001600160f81b031916908160001a905350600f60fb1b8160018151811061157a5761157a611a52565b60200101906001600160f81b031916908160001a905350600061159e846002611a12565b6115a9906001611a29565b90505b6001811115611621576f181899199a1a9b1b9c1cb0b131b232b360811b85600f16601081106115dd576115dd611a52565b1a60f81b8282815181106115f3576115f3611a52565b60200101906001600160f81b031916908160001a90535060049490941c9361161a81611a68565b90506115ac565b5083156111695760405162461bcd60e51b815260206004820181905260248201527f537472696e67733a20686578206c656e67746820696e73756666696369656e746044820152606401610408565b60006020828403121561168257600080fd5b81356001600160e01b03198116811461116957600080fd5b80356001600160a01b03811681146116b157600080fd5b919050565b6000602082840312156116c857600080fd5b6111698261169a565b6020808252825182820181905260009190848201906040850190845b81811015611709578351835292840192918401916001016116ed565b50909695505050505050565b60006020828403121561172757600080fd5b5035919050565b6000806040838503121561174157600080fd5b823591506117516020840161169a565b90509250929050565b6000806040838503121561176d57600080fd5b6117768361169a565b946020939093013593505050565b634e487b7160e01b600052602160045260246000fd5b600681106117b857634e487b7160e01b600052602160045260246000fd5b9052565b815181526020808301516101808301916117e0908401826001600160a01b03169052565b5060408301516117fb60408401826001600160a01b03169052565b50606083015161181660608401826001600160a01b03169052565b50608083015161183160808401826001600160a01b03169052565b5060a083015160a083015260c083015161184e60c084018261179a565b5060e083015161186a60e084018267ffffffffffffffff169052565b506101008381015167ffffffffffffffff16908301526101208084015115159083015261014080840151151590830152610160928301511515929091019190915290565b6000806000606084860312156118c357600080fd5b833592506118d36020850161169a565b91506118e16040850161169a565b90509250925092565b602080825260139082015272141c9bdc195c9d1e4e881b9bdd08199bdd5b99606a1b604082015260600190565b634e487b7160e01b600052601160045260246000fd5b60006001820161193f5761193f611917565b5060010190565b60005b83811015611961578181015183820152602001611949565b50506000910152565b7f416363657373436f6e74726f6c3a206163636f756e74200000000000000000008152600083516119a2816017850160208801611946565b7001034b99036b4b9b9b4b733903937b6329607d1b60179184019182015283516119d3816028840160208801611946565b01602801949350505050565b60208152600082518060208401526119fe816040850160208701611946565b601f01601f19169190910160400192915050565b808202811582820484141761036857610368611917565b8082018082111561036857610368611917565b634e487b7160e01b600052604160045260246000fd5b634e487b7160e01b600052603260045260246000fd5b600081611a7757611a77611917565b50600019019056fea2646970667358221220a116cd78ebef66d017a9d2c0691da1189315275f8eeef142c298838f82e8d3a264736f6c63430008150033","opcodes":"PUSH1 0x80 PUSH1 0x40 MSTORE CALLVALUE DUP1 ISZERO PUSH3 0x11 JUMPI PUSH1 0x0 DUP1 REVERT JUMPDEST POP PUSH1 0x40 MLOAD PUSH3 0x1BE4 CODESIZE SUB DUP1 PUSH3 0x1BE4 DUP4 CODECOPY DUP2 ADD PUSH1 0x40 DUP2 SWAP1 MSTORE PUSH3 0x34 SWAP2 PUSH3 0xED JUMP JUMPDEST PUSH1 0x1 DUP1 SSTORE PUSH3 0x45 PUSH1 0x0 DUP3 PUSH3 0x4C JUMP JUMPDEST POP PUSH3 0x11F JUMP JUMPDEST PUSH1 0x0 DUP3 DUP2 MSTORE PUSH1 0x20 DUP2 DUP2 MSTORE PUSH1 0x40 DUP1 DUP4 KECCAK256 PUSH1 0x1 PUSH1 0x1 PUSH1 0xA0 SHL SUB DUP6 AND DUP5 MSTORE SWAP1 SWAP2 MSTORE SWAP1 KECCAK256 SLOAD PUSH1 0xFF AND PUSH3 0xE9 JUMPI PUSH1 0x0 DUP3 DUP2 MSTORE PUSH1 0x20 DUP2 DUP2 MSTORE PUSH1 0x40 DUP1 DUP4 KECCAK256 PUSH1 0x1 PUSH1 0x1 PUSH1 0xA0 SHL SUB DUP6 AND DUP5 MSTORE SWAP1 SWAP2 MSTORE SWAP1 KECCAK256 DUP1 SLOAD PUSH1 0xFF NOT AND PUSH1 0x1 OR SWAP1 SSTORE PUSH3 0xA8 CALLER SWAP1 JUMP JUMPDEST PUSH1 0x1 PUSH1 0x1 PUSH1 0xA0 SHL SUB AND DUP2 PUSH1 0x1 PUSH1 0x1 PUSH1 0xA0 SHL SUB AND DUP4 PUSH32 0x2F8788117E7EFF1D82E926EC794901D17C78024A50270940304540A733656F0D PUSH1 0x40 MLOAD PUSH1 0x40 MLOAD DUP1 SWAP2 SUB SWAP1 LOG4 JUMPDEST POP POP JUMP JUMPDEST PUSH1 0x0 PUSH1 0x20 DUP3 DUP5 SUB SLT ISZERO PUSH3 0x100 JUMPI PUSH1 0x0 DUP1 REVERT JUMPDEST DUP2 MLOAD PUSH1 0x1 PUSH1 0x1 PUSH1 0xA0 SHL SUB DUP2 AND DUP2 EQ PUSH3 0x118 JUMPI PUSH1 0x0 DUP1 REVERT JUMPDEST SWAP4 SWAP3 POP POP POP JUMP JUMPDEST PUSH2 0x1AB5 DUP1 PUSH3 0x12F PUSH1 0x0 CODECOPY PUSH1 0x0 RETURN INVALID PUSH1 0x80 PUSH1 0x40 MSTORE CALLVALUE DUP1 ISZERO PUSH2 0x10 JUMPI PUSH1 0x0 DUP1 REVERT JUMPDEST POP PUSH1 0x4 CALLDATASIZE LT PUSH2 0x137 JUMPI PUSH1 0x0 CALLDATALOAD PUSH1 0xE0 SHR DUP1 PUSH4 0x910B2882 GT PUSH2 0xB8 JUMPI DUP1 PUSH4 0xC48B0BAA GT PUSH2 0x7C JUMPI DUP1 PUSH4 0xC48B0BAA EQ PUSH2 0x2B1 JUMPI DUP1 PUSH4 0xCAC5C512 EQ PUSH2 0x2D8 JUMPI DUP1 PUSH4 0xD547741F EQ PUSH2 0x2EB JUMPI DUP1 PUSH4 0xD7FF4020 EQ PUSH2 0x2FE JUMPI DUP1 PUSH4 0xDBE51721 EQ PUSH2 0x311 JUMPI DUP1 PUSH4 0xEB73425D EQ PUSH2 0x324 JUMPI PUSH1 0x0 DUP1 REVERT JUMPDEST DUP1 PUSH4 0x910B2882 EQ PUSH2 0x249 JUMPI DUP1 PUSH4 0x91D14854 EQ PUSH2 0x25C JUMPI DUP1 PUSH4 0x9CBED582 EQ PUSH2 0x26F JUMPI DUP1 PUSH4 0xA217FDDF EQ PUSH2 0x296 JUMPI DUP1 PUSH4 0xBC712538 EQ PUSH2 0x29E JUMPI PUSH1 0x0 DUP1 REVERT JUMPDEST DUP1 PUSH4 0x2F2FF15D GT PUSH2 0xFF JUMPI DUP1 PUSH4 0x2F2FF15D EQ PUSH2 0x1DD JUMPI DUP1 PUSH4 0x32665FFB EQ PUSH2 0x1F0 JUMPI DUP1 PUSH4 0x36568ABE EQ PUSH2 0x210 JUMPI DUP1 PUSH4 0x40E58EE5 EQ PUSH2 0x223 JUMPI DUP1 PUSH4 0x74569C91 EQ PUSH2 0x236 JUMPI PUSH1 0x0 DUP1 REVERT JUMPDEST DUP1 PUSH4 0x1FFC9A7 EQ PUSH2 0x13C JUMPI DUP1 PUSH4 0x31306EC EQ PUSH2 0x164 JUMPI DUP1 PUSH4 0x248A9CA3 EQ PUSH2 0x184 JUMPI DUP1 PUSH4 0x29507F73 EQ PUSH2 0x1B5 JUMPI DUP1 PUSH4 0x29F9766E EQ PUSH2 0x1CA JUMPI JUMPDEST PUSH1 0x0 DUP1 REVERT JUMPDEST PUSH2 0x14F PUSH2 0x14A CALLDATASIZE PUSH1 0x4 PUSH2 0x1670 JUMP JUMPDEST PUSH2 0x337 JUMP JUMPDEST PUSH1 0x40 MLOAD SWAP1 ISZERO ISZERO DUP2 MSTORE PUSH1 0x20 ADD JUMPDEST PUSH1 0x40 MLOAD DUP1 SWAP2 SUB SWAP1 RETURN JUMPDEST PUSH2 0x177 PUSH2 0x172 CALLDATASIZE PUSH1 0x4 PUSH2 0x16B6 JUMP JUMPDEST PUSH2 0x36E JUMP JUMPDEST PUSH1 0x40 MLOAD PUSH2 0x15B SWAP2 SWAP1 PUSH2 0x16D1 JUMP JUMPDEST PUSH2 0x1A7 PUSH2 0x192 CALLDATASIZE PUSH1 0x4 PUSH2 0x1715 JUMP JUMPDEST PUSH1 0x0 SWAP1 DUP2 MSTORE PUSH1 0x20 DUP2 SWAP1 MSTORE PUSH1 0x40 SWAP1 KECCAK256 PUSH1 0x1 ADD SLOAD SWAP1 JUMP JUMPDEST PUSH1 0x40 MLOAD SWAP1 DUP2 MSTORE PUSH1 0x20 ADD PUSH2 0x15B JUMP JUMPDEST PUSH2 0x1C8 PUSH2 0x1C3 CALLDATASIZE PUSH1 0x4 PUSH2 0x172E JUMP JUMPDEST PUSH2 0x3DA JUMP JUMPDEST STOP JUMPDEST PUSH2 0x1A7 PUSH2 0x1D8 CALLDATASIZE PUSH1 0x4 PUSH2 0x175A JUMP JUMPDEST PUSH2 0x608 JUMP JUMPDEST PUSH2 0x1C8 PUSH2 0x1EB CALLDATASIZE PUSH1 0x4 PUSH2 0x172E JUMP JUMPDEST PUSH2 0x639 JUMP JUMPDEST PUSH2 0x203 PUSH2 0x1FE CALLDATASIZE PUSH1 0x4 PUSH2 0x1715 JUMP JUMPDEST PUSH2 0x65E JUMP JUMPDEST PUSH1 0x40 MLOAD PUSH2 0x15B SWAP2 SWAP1 PUSH2 0x17BC JUMP JUMPDEST PUSH2 0x1C8 PUSH2 0x21E CALLDATASIZE PUSH1 0x4 PUSH2 0x172E JUMP JUMPDEST PUSH2 0x7E8 JUMP JUMPDEST PUSH2 0x1C8 PUSH2 0x231 CALLDATASIZE PUSH1 0x4 PUSH2 0x1715 JUMP JUMPDEST PUSH2 0x866 JUMP JUMPDEST PUSH2 0x1C8 PUSH2 0x244 CALLDATASIZE PUSH1 0x4 PUSH2 0x1715 JUMP JUMPDEST PUSH2 0x9D8 JUMP JUMPDEST PUSH2 0x1C8 PUSH2 0x257 CALLDATASIZE PUSH1 0x4 PUSH2 0x1715 JUMP JUMPDEST PUSH2 0xB5C JUMP JUMPDEST PUSH2 0x14F PUSH2 0x26A CALLDATASIZE PUSH1 0x4 PUSH2 0x172E JUMP JUMPDEST PUSH2 0xCDD JUMP JUMPDEST PUSH2 0x1A7 PUSH32 0xD9D062B29C8756D894F301C5167D214C34D627724CD7FC859AB9329C9330CF51 DUP2 JUMP JUMPDEST PUSH2 0x1A7 PUSH1 0x0 DUP2 JUMP JUMPDEST PUSH2 0x177 PUSH2 0x2AC CALLDATASIZE PUSH1 0x4 PUSH2 0x16B6 JUMP JUMPDEST PUSH2 0xD06 JUMP JUMPDEST PUSH2 0x1A7 PUSH32 0x14DF5EE2861D7F34562399FFA112FC59B51F810D2B875C3609BA0C31AC873D0 DUP2 JUMP JUMPDEST PUSH2 0x1C8 PUSH2 0x2E6 CALLDATASIZE PUSH1 0x4 PUSH2 0x1715 JUMP JUMPDEST PUSH2 0xD70 JUMP JUMPDEST PUSH2 0x1C8 PUSH2 0x2F9 CALLDATASIZE PUSH1 0x4 PUSH2 0x172E JUMP JUMPDEST PUSH2 0xEEB JUMP JUMPDEST PUSH2 0x1A7 PUSH2 0x30C CALLDATASIZE PUSH1 0x4 PUSH2 0x175A JUMP JUMPDEST PUSH2 0xF10 JUMP JUMPDEST PUSH2 0x1A7 PUSH2 0x31F CALLDATASIZE PUSH1 0x4 PUSH2 0x18AE JUMP JUMPDEST PUSH2 0xF2C JUMP JUMPDEST PUSH2 0x1C8 PUSH2 0x332 CALLDATASIZE PUSH1 0x4 PUSH2 0x1715 JUMP JUMPDEST PUSH2 0x1170 JUMP JUMPDEST PUSH1 0x0 PUSH1 0x1 PUSH1 0x1 PUSH1 0xE0 SHL SUB NOT DUP3 AND PUSH4 0x7965DB0B PUSH1 0xE0 SHL EQ DUP1 PUSH2 0x368 JUMPI POP PUSH4 0x1FFC9A7 PUSH1 0xE0 SHL PUSH1 0x1 PUSH1 0x1 PUSH1 0xE0 SHL SUB NOT DUP4 AND EQ JUMPDEST SWAP3 SWAP2 POP POP JUMP JUMPDEST PUSH1 0x1 PUSH1 0x1 PUSH1 0xA0 SHL SUB DUP2 AND PUSH1 0x0 SWAP1 DUP2 MSTORE PUSH1 0x4 PUSH1 0x20 SWAP1 DUP2 MSTORE PUSH1 0x40 SWAP2 DUP3 SWAP1 KECCAK256 DUP1 SLOAD DUP4 MLOAD DUP2 DUP5 MUL DUP2 ADD DUP5 ADD SWAP1 SWAP5 MSTORE DUP1 DUP5 MSTORE PUSH1 0x60 SWAP4 SWAP3 DUP4 ADD DUP3 DUP3 DUP1 ISZERO PUSH2 0x3CE JUMPI PUSH1 0x20 MUL DUP3 ADD SWAP2 SWAP1 PUSH1 0x0 MSTORE PUSH1 0x20 PUSH1 0x0 KECCAK256 SWAP1 JUMPDEST DUP2 SLOAD DUP2 MSTORE PUSH1 0x20 ADD SWAP1 PUSH1 0x1 ADD SWAP1 DUP1 DUP4 GT PUSH2 0x3BA JUMPI JUMPDEST POP POP POP POP POP SWAP1 POP SWAP2 SWAP1 POP JUMP JUMPDEST PUSH1 0x0 DUP3 DUP2 MSTORE PUSH1 0x3 PUSH1 0x20 MSTORE PUSH1 0x40 DUP2 KECCAK256 SLOAD DUP4 SWAP2 SUB PUSH2 0x411 JUMPI PUSH1 0x40 MLOAD PUSH3 0x461BCD PUSH1 0xE5 SHL DUP2 MSTORE PUSH1 0x4 ADD PUSH2 0x408 SWAP1 PUSH2 0x18EA JUMP JUMPDEST PUSH1 0x40 MLOAD DUP1 SWAP2 SUB SWAP1 REVERT JUMPDEST PUSH2 0x419 PUSH2 0x131A JUMP JUMPDEST PUSH1 0x0 DUP4 DUP2 MSTORE PUSH1 0x3 PUSH1 0x20 MSTORE PUSH1 0x40 SWAP1 KECCAK256 PUSH1 0x1 DUP2 ADD SLOAD PUSH1 0x1 PUSH1 0x1 PUSH1 0xA0 SHL SUB AND CALLER EQ PUSH2 0x483 JUMPI PUSH1 0x40 MLOAD PUSH3 0x461BCD PUSH1 0xE5 SHL DUP2 MSTORE PUSH1 0x20 PUSH1 0x4 DUP3 ADD MSTORE PUSH1 0x1B PUSH1 0x24 DUP3 ADD MSTORE PUSH32 0x50726F70657274793A2063616C6C6572206E6F742073656C6C65720000000000 PUSH1 0x44 DUP3 ADD MSTORE PUSH1 0x64 ADD PUSH2 0x408 JUMP JUMPDEST PUSH1 0x3 PUSH1 0x6 DUP3 ADD SLOAD PUSH1 0xFF AND PUSH1 0x5 DUP2 GT ISZERO PUSH2 0x49E JUMPI PUSH2 0x49E PUSH2 0x1784 JUMP JUMPDEST EQ DUP1 PUSH2 0x4C2 JUMPI POP PUSH1 0x4 PUSH1 0x6 DUP3 ADD SLOAD PUSH1 0xFF AND PUSH1 0x5 DUP2 GT ISZERO PUSH2 0x4C0 JUMPI PUSH2 0x4C0 PUSH2 0x1784 JUMP JUMPDEST EQ JUMPDEST PUSH2 0x50E JUMPI PUSH1 0x40 MLOAD PUSH3 0x461BCD PUSH1 0xE5 SHL DUP2 MSTORE PUSH1 0x20 PUSH1 0x4 DUP3 ADD MSTORE PUSH1 0x17 PUSH1 0x24 DUP3 ADD MSTORE PUSH32 0x50726F70657274793A206E6F742066696E616C697A6564000000000000000000 PUSH1 0x44 DUP3 ADD MSTORE PUSH1 0x64 ADD PUSH2 0x408 JUMP JUMPDEST PUSH1 0x1 PUSH1 0x1 PUSH1 0xA0 SHL SUB DUP4 AND PUSH2 0x55D JUMPI PUSH1 0x40 MLOAD PUSH3 0x461BCD PUSH1 0xE5 SHL DUP2 MSTORE PUSH1 0x20 PUSH1 0x4 DUP3 ADD MSTORE PUSH1 0x16 PUSH1 0x24 DUP3 ADD MSTORE PUSH22 0x50726F70657274793A207A65726F2061646472657373 PUSH1 0x50 SHL PUSH1 0x44 DUP3 ADD MSTORE PUSH1 0x64 ADD PUSH2 0x408 JUMP JUMPDEST PUSH1 0x1 DUP1 DUP3 ADD DUP1 SLOAD PUSH1 0x1 PUSH1 0x1 PUSH1 0xA0 SHL SUB DUP7 DUP2 AND PUSH1 0x1 PUSH1 0x1 PUSH1 0xA0 SHL SUB NOT DUP4 AND DUP2 OR SWAP1 SWAP4 SSTORE PUSH1 0x6 DUP6 ADD DUP1 SLOAD PUSH8 0xFFFFFFFFFFFFFFFF TIMESTAMP AND PUSH1 0x1 PUSH1 0x48 SHL MUL PUSH8 0xFFFFFFFFFFFFFFFF PUSH1 0x48 SHL NOT SWAP1 SWAP2 AND OR SWAP1 SSTORE PUSH1 0x0 DUP4 DUP2 MSTORE PUSH1 0x4 PUSH1 0x20 SWAP1 DUP2 MSTORE PUSH1 0x40 DUP1 DUP4 KECCAK256 DUP1 SLOAD SWAP8 DUP9 ADD DUP2 SSTORE DUP4 MSTORE SWAP1 DUP3 KECCAK256 SWAP1 SWAP6 ADD DUP10 SWAP1 SSTORE SWAP4 MLOAD SWAP2 AND SWAP3 DUP4 SWAP2 DUP9 SWAP2 PUSH32 0x16B85F49BF01212961345D3016C9A531894ACCF62EB7680F2045D79185CC0EC0 SWAP2 LOG4 POP POP PUSH2 0x603 PUSH1 0x1 DUP1 SSTORE JUMP JUMPDEST POP POP POP JUMP JUMPDEST PUSH1 0x4 PUSH1 0x20 MSTORE DUP2 PUSH1 0x0 MSTORE PUSH1 0x40 PUSH1 0x0 KECCAK256 DUP2 DUP2 SLOAD DUP2 LT PUSH2 0x624 JUMPI PUSH1 0x0 DUP1 REVERT JUMPDEST SWAP1 PUSH1 0x0 MSTORE PUSH1 0x20 PUSH1 0x0 KECCAK256 ADD PUSH1 0x0 SWAP2 POP SWAP2 POP POP SLOAD DUP2 JUMP JUMPDEST PUSH1 0x0 DUP3 DUP2 MSTORE PUSH1 0x20 DUP2 SWAP1 MSTORE PUSH1 0x40 SWAP1 KECCAK256 PUSH1 0x1 ADD SLOAD PUSH2 0x654 DUP2 PUSH2 0x1373 JUMP JUMPDEST PUSH2 0x603 DUP4 DUP4 PUSH2 0x1380 JUMP JUMPDEST PUSH1 0x40 DUP1 MLOAD PUSH2 0x180 DUP2 ADD DUP3 MSTORE PUSH1 0x0 DUP1 DUP3 MSTORE PUSH1 0x20 DUP3 ADD DUP2 SWAP1 MSTORE SWAP2 DUP2 ADD DUP3 SWAP1 MSTORE PUSH1 0x60 DUP2 ADD DUP3 SWAP1 MSTORE PUSH1 0x80 DUP2 ADD DUP3 SWAP1 MSTORE PUSH1 0xA0 DUP2 ADD DUP3 SWAP1 MSTORE PUSH1 0xC0 DUP2 ADD DUP3 SWAP1 MSTORE PUSH1 0xE0 DUP2 ADD DUP3 SWAP1 MSTORE PUSH2 0x100 DUP2 ADD DUP3 SWAP1 MSTORE PUSH2 0x120 DUP2 ADD DUP3 SWAP1 MSTORE PUSH2 0x140 DUP2 ADD DUP3 SWAP1 MSTORE PUSH2 0x160 DUP2 ADD SWAP2 SWAP1 SWAP2 MSTORE PUSH1 0x0 DUP3 DUP2 MSTORE PUSH1 0x3 PUSH1 0x20 MSTORE PUSH1 0x40 DUP2 KECCAK256 SLOAD DUP4 SWAP2 SUB PUSH2 0x6ED JUMPI PUSH1 0x40 MLOAD PUSH3 0x461BCD PUSH1 0xE5 SHL DUP2 MSTORE PUSH1 0x4 ADD PUSH2 0x408 SWAP1 PUSH2 0x18EA JUMP JUMPDEST PUSH1 0x0 DUP4 DUP2 MSTORE PUSH1 0x3 PUSH1 0x20 DUP2 DUP2 MSTORE PUSH1 0x40 SWAP3 DUP4 SWAP1 KECCAK256 DUP4 MLOAD PUSH2 0x180 DUP2 ADD DUP6 MSTORE DUP2 SLOAD DUP2 MSTORE PUSH1 0x1 DUP3 ADD SLOAD PUSH1 0x1 PUSH1 0x1 PUSH1 0xA0 SHL SUB SWAP1 DUP2 AND SWAP4 DUP3 ADD SWAP4 SWAP1 SWAP4 MSTORE PUSH1 0x2 DUP3 ADD SLOAD DUP4 AND SWAP5 DUP2 ADD SWAP5 SWAP1 SWAP5 MSTORE SWAP2 DUP3 ADD SLOAD DUP2 AND PUSH1 0x60 DUP5 ADD MSTORE PUSH1 0x4 DUP3 ADD SLOAD AND PUSH1 0x80 DUP4 ADD MSTORE PUSH1 0x5 DUP1 DUP3 ADD SLOAD PUSH1 0xA0 DUP5 ADD MSTORE PUSH1 0x6 DUP3 ADD SLOAD PUSH1 0xC0 DUP5 ADD SWAP2 PUSH1 0xFF SWAP1 SWAP2 AND SWAP1 DUP2 GT ISZERO PUSH2 0x771 JUMPI PUSH2 0x771 PUSH2 0x1784 JUMP JUMPDEST PUSH1 0x5 DUP2 GT ISZERO PUSH2 0x782 JUMPI PUSH2 0x782 PUSH2 0x1784 JUMP JUMPDEST DUP2 MSTORE PUSH1 0x6 SWAP2 SWAP1 SWAP2 ADD SLOAD PUSH8 0xFFFFFFFFFFFFFFFF PUSH2 0x100 DUP3 DIV DUP2 AND PUSH1 0x20 DUP5 ADD MSTORE PUSH1 0x1 PUSH1 0x48 SHL DUP3 DIV AND PUSH1 0x40 DUP4 ADD MSTORE PUSH1 0xFF PUSH1 0x1 PUSH1 0x88 SHL DUP3 DIV DUP2 AND ISZERO ISZERO PUSH1 0x60 DUP5 ADD MSTORE PUSH1 0x1 PUSH1 0x90 SHL DUP3 DIV DUP2 AND ISZERO ISZERO PUSH1 0x80 DUP5 ADD MSTORE PUSH1 0x1 PUSH1 0x98 SHL SWAP1 SWAP2 DIV AND ISZERO ISZERO PUSH1 0xA0 SWAP1 SWAP2 ADD MSTORE SWAP2 POP POP SWAP2 SWAP1 POP JUMP JUMPDEST PUSH1 0x1 PUSH1 0x1 PUSH1 0xA0 SHL SUB DUP2 AND CALLER EQ PUSH2 0x858 JUMPI PUSH1 0x40 MLOAD PUSH3 0x461BCD PUSH1 0xE5 SHL DUP2 MSTORE PUSH1 0x20 PUSH1 0x4 DUP3 ADD MSTORE PUSH1 0x2F PUSH1 0x24 DUP3 ADD MSTORE PUSH32 0x416363657373436F6E74726F6C3A2063616E206F6E6C792072656E6F756E6365 PUSH1 0x44 DUP3 ADD MSTORE PUSH15 0x103937B632B9903337B91039B2B633 PUSH1 0x89 SHL PUSH1 0x64 DUP3 ADD MSTORE PUSH1 0x84 ADD PUSH2 0x408 JUMP JUMPDEST PUSH2 0x862 DUP3 DUP3 PUSH2 0x1404 JUMP JUMPDEST POP POP JUMP JUMPDEST PUSH1 0x0 DUP2 DUP2 MSTORE PUSH1 0x3 PUSH1 0x20 MSTORE PUSH1 0x40 DUP2 KECCAK256 SLOAD DUP3 SWAP2 SUB PUSH2 0x894 JUMPI PUSH1 0x40 MLOAD PUSH3 0x461BCD PUSH1 0xE5 SHL DUP2 MSTORE PUSH1 0x4 ADD PUSH2 0x408 SWAP1 PUSH2 0x18EA JUMP JUMPDEST PUSH2 0x89C PUSH2 0x131A JUMP JUMPDEST PUSH1 0x0 DUP3 DUP2 MSTORE PUSH1 0x3 PUSH1 0x20 MSTORE PUSH1 0x40 SWAP1 KECCAK256 PUSH1 0x1 DUP2 ADD SLOAD PUSH1 0x1 PUSH1 0x1 PUSH1 0xA0 SHL SUB AND CALLER EQ PUSH2 0x906 JUMPI PUSH1 0x40 MLOAD PUSH3 0x461BCD PUSH1 0xE5 SHL DUP2 MSTORE PUSH1 0x20 PUSH1 0x4 DUP3 ADD MSTORE PUSH1 0x1B PUSH1 0x24 DUP3 ADD MSTORE PUSH32 0x50726F70657274793A2063616C6C6572206E6F742073656C6C65720000000000 PUSH1 0x44 DUP3 ADD MSTORE PUSH1 0x64 ADD PUSH2 0x408 JUMP JUMPDEST PUSH1 0x0 PUSH1 0x6 DUP3 ADD SLOAD PUSH1 0xFF AND PUSH1 0x5 DUP2 GT ISZERO PUSH2 0x921 JUMPI PUSH2 0x921 PUSH2 0x1784 JUMP JUMPDEST EQ PUSH2 0x96E JUMPI PUSH1 0x40 MLOAD PUSH3 0x461BCD PUSH1 0xE5 SHL DUP2 MSTORE PUSH1 0x20 PUSH1 0x4 DUP3 ADD MSTORE PUSH1 0x1B PUSH1 0x24 DUP3 ADD MSTORE PUSH32 0x50726F70657274793A2063616E6E6F742063616E63656C206E6F770000000000 PUSH1 0x44 DUP3 ADD MSTORE PUSH1 0x64 ADD PUSH2 0x408 JUMP JUMPDEST PUSH1 0x6 DUP2 ADD DUP1 SLOAD PUSH8 0xFFFFFFFFFFFFFFFF TIMESTAMP AND PUSH1 0x1 PUSH1 0x48 SHL MUL PUSH17 0xFFFFFFFFFFFFFFFF0000000000000000FF NOT SWAP1 SWAP2 AND OR PUSH1 0x5 OR SWAP1 SSTORE PUSH1 0x40 MLOAD CALLER SWAP1 DUP5 SWAP1 PUSH32 0x26DECA31FF8139A06C52453CE8985D34F7648A6D9AF1D283C4063D052C355A0F SWAP1 PUSH1 0x0 SWAP1 LOG3 POP PUSH2 0x862 PUSH1 0x1 DUP1 SSTORE JUMP JUMPDEST PUSH1 0x0 DUP2 DUP2 MSTORE PUSH1 0x3 PUSH1 0x20 MSTORE PUSH1 0x40 DUP2 KECCAK256 SLOAD DUP3 SWAP2 SUB PUSH2 0xA06 JUMPI PUSH1 0x40 MLOAD PUSH3 0x461BCD PUSH1 0xE5 SHL DUP2 MSTORE PUSH1 0x4 ADD PUSH2 0x408 SWAP1 PUSH2 0x18EA JUMP JUMPDEST PUSH2 0xA0E PUSH2 0x131A JUMP JUMPDEST PUSH1 0x0 DUP3 DUP2 MSTORE PUSH1 0x3 PUSH1 0x20 MSTORE PUSH1 0x40 SWAP1 KECCAK256 PUSH1 0x2 DUP2 ADD SLOAD PUSH1 0x1 PUSH1 0x1 PUSH1 0xA0 SHL SUB AND CALLER EQ PUSH2 0xA78 JUMPI PUSH1 0x40 MLOAD PUSH3 0x461BCD PUSH1 0xE5 SHL DUP2 MSTORE PUSH1 0x20 PUSH1 0x4 DUP3 ADD MSTORE PUSH1 0x1A PUSH1 0x24 DUP3 ADD MSTORE PUSH32 0x50726F70657274793A2063616C6C6572206E6F74206275796572000000000000 PUSH1 0x44 DUP3 ADD MSTORE PUSH1 0x64 ADD PUSH2 0x408 JUMP JUMPDEST PUSH1 0x1 PUSH1 0x6 DUP3 ADD SLOAD PUSH1 0xFF AND PUSH1 0x5 DUP2 GT ISZERO PUSH2 0xA93 JUMPI PUSH2 0xA93 PUSH2 0x1784 JUMP JUMPDEST EQ PUSH2 0xAE0 JUMPI PUSH1 0x40 MLOAD PUSH3 0x461BCD PUSH1 0xE5 SHL DUP2 MSTORE PUSH1 0x20 PUSH1 0x4 DUP3 ADD MSTORE PUSH1 0x18 PUSH1 0x24 DUP3 ADD MSTORE PUSH32 0x50726F70657274793A2077616974696E67206E6F746172790000000000000000 PUSH1 0x44 DUP3 ADD MSTORE PUSH1 0x64 ADD PUSH2 0x408 JUMP JUMPDEST PUSH1 0x6 DUP2 ADD DUP1 SLOAD PUSH8 0xFFFFFFFFFFFFFFFF TIMESTAMP AND PUSH1 0x1 PUSH1 0x48 SHL MUL PUSH18 0xFFFFFFFFFFFFFFFFFF0000000000000000FF NOT SWAP1 SWAP2 AND OR PUSH18 0x10000000000000000000000000000000002 OR SWAP1 SSTORE PUSH1 0x40 MLOAD CALLER SWAP1 DUP5 SWAP1 PUSH32 0xCF93094854A81F1A3D7C99633CFF4DAC98837E96EBC9D5529993DEA33242CC67 SWAP1 PUSH1 0x0 SWAP1 LOG3 POP PUSH2 0x862 PUSH1 0x1 DUP1 SSTORE JUMP JUMPDEST PUSH1 0x0 DUP2 DUP2 MSTORE PUSH1 0x3 PUSH1 0x20 MSTORE PUSH1 0x40 DUP2 KECCAK256 SLOAD DUP3 SWAP2 SUB PUSH2 0xB8A JUMPI PUSH1 0x40 MLOAD PUSH3 0x461BCD PUSH1 0xE5 SHL DUP2 MSTORE PUSH1 0x4 ADD PUSH2 0x408 SWAP1 PUSH2 0x18EA JUMP JUMPDEST PUSH2 0xB92 PUSH2 0x131A JUMP JUMPDEST PUSH1 0x0 DUP3 DUP2 MSTORE PUSH1 0x3 PUSH1 0x20 DUP2 SWAP1 MSTORE PUSH1 0x40 SWAP1 SWAP2 KECCAK256 SWAP1 DUP2 ADD SLOAD PUSH1 0x1 PUSH1 0x1 PUSH1 0xA0 SHL SUB AND CALLER EQ PUSH2 0xBFE JUMPI PUSH1 0x40 MLOAD PUSH3 0x461BCD PUSH1 0xE5 SHL DUP2 MSTORE PUSH1 0x20 PUSH1 0x4 DUP3 ADD MSTORE PUSH1 0x1B PUSH1 0x24 DUP3 ADD MSTORE PUSH32 0x50726F70657274793A2063616C6C6572206E6F74206E6F746172790000000000 PUSH1 0x44 DUP3 ADD MSTORE PUSH1 0x64 ADD PUSH2 0x408 JUMP JUMPDEST PUSH1 0x0 PUSH1 0x6 DUP3 ADD SLOAD PUSH1 0xFF AND PUSH1 0x5 DUP2 GT ISZERO PUSH2 0xC19 JUMPI PUSH2 0xC19 PUSH2 0x1784 JUMP JUMPDEST EQ PUSH2 0xC5F JUMPI PUSH1 0x40 MLOAD PUSH3 0x461BCD PUSH1 0xE5 SHL DUP2 MSTORE PUSH1 0x20 PUSH1 0x4 DUP3 ADD MSTORE PUSH1 0x16 PUSH1 0x24 DUP3 ADD MSTORE PUSH22 0x50726F70657274793A2077726F6E6720737461747573 PUSH1 0x50 SHL PUSH1 0x44 DUP3 ADD MSTORE PUSH1 0x64 ADD PUSH2 0x408 JUMP JUMPDEST PUSH1 0x6 DUP2 ADD DUP1 SLOAD PUSH8 0xFFFFFFFFFFFFFFFF TIMESTAMP AND PUSH1 0x1 PUSH1 0x48 SHL MUL PUSH19 0xFF00FFFFFFFFFFFFFFFF0000000000000000FF NOT SWAP1 SWAP2 AND OR PUSH19 0x1000000000000000000000000000000000001 OR SWAP1 SSTORE PUSH1 0x40 MLOAD CALLER SWAP1 DUP5 SWAP1 PUSH32 0x82866CD1A9B1D6AA81CF0E474ED67A8F5192E099B8254C88F32C1E44AF73A317 SWAP1 PUSH1 0x0 SWAP1 LOG3 POP PUSH2 0x862 PUSH1 0x1 DUP1 SSTORE JUMP JUMPDEST PUSH1 0x0 SWAP2 DUP3 MSTORE PUSH1 0x20 DUP3 DUP2 MSTORE PUSH1 0x40 DUP1 DUP5 KECCAK256 PUSH1 0x1 PUSH1 0x1 PUSH1 0xA0 SHL SUB SWAP4 SWAP1 SWAP4 AND DUP5 MSTORE SWAP2 SWAP1 MSTORE SWAP1 KECCAK256 SLOAD PUSH1 0xFF AND SWAP1 JUMP JUMPDEST PUSH1 0x1 PUSH1 0x1 PUSH1 0xA0 SHL SUB DUP2 AND PUSH1 0x0 SWAP1 DUP2 MSTORE PUSH1 0x5 PUSH1 0x20 SWAP1 DUP2 MSTORE PUSH1 0x40 SWAP2 DUP3 SWAP1 KECCAK256 DUP1 SLOAD DUP4 MLOAD DUP2 DUP5 MUL DUP2 ADD DUP5 ADD SWAP1 SWAP5 MSTORE DUP1 DUP5 MSTORE PUSH1 0x60 SWAP4 SWAP3 DUP4 ADD DUP3 DUP3 DUP1 ISZERO PUSH2 0x3CE JUMPI PUSH1 0x20 MUL DUP3 ADD SWAP2 SWAP1 PUSH1 0x0 MSTORE PUSH1 0x20 PUSH1 0x0 KECCAK256 SWAP1 DUP2 SLOAD DUP2 MSTORE PUSH1 0x20 ADD SWAP1 PUSH1 0x1 ADD SWAP1 DUP1 DUP4 GT PUSH2 0x3BA JUMPI POP POP POP POP POP SWAP1 POP SWAP2 SWAP1 POP JUMP JUMPDEST PUSH1 0x0 DUP2 DUP2 MSTORE PUSH1 0x3 PUSH1 0x20 MSTORE PUSH1 0x40 DUP2 KECCAK256 SLOAD DUP3 SWAP2 SUB PUSH2 0xD9E JUMPI PUSH1 0x40 MLOAD PUSH3 0x461BCD PUSH1 0xE5 SHL DUP2 MSTORE PUSH1 0x4 ADD PUSH2 0x408 SWAP1 PUSH2 0x18EA JUMP JUMPDEST PUSH2 0xDA6 PUSH2 0x131A JUMP JUMPDEST PUSH1 0x0 DUP3 DUP2 MSTORE PUSH1 0x3 PUSH1 0x20 DUP2 SWAP1 MSTORE PUSH1 0x40 SWAP1 SWAP2 KECCAK256 SWAP1 PUSH1 0x6 DUP3 ADD SLOAD PUSH1 0xFF AND PUSH1 0x5 DUP2 GT ISZERO PUSH2 0xDD1 JUMPI PUSH2 0xDD1 PUSH2 0x1784 JUMP JUMPDEST EQ PUSH2 0xE15 JUMPI PUSH1 0x40 MLOAD PUSH3 0x461BCD PUSH1 0xE5 SHL DUP2 MSTORE PUSH1 0x20 PUSH1 0x4 DUP3 ADD MSTORE PUSH1 0x14 PUSH1 0x24 DUP3 ADD MSTORE PUSH20 0x141C9BDC195C9D1E4E881B9BDD081CD9585B1959 PUSH1 0x62 SHL PUSH1 0x44 DUP3 ADD MSTORE PUSH1 0x64 ADD PUSH2 0x408 JUMP JUMPDEST PUSH1 0x1 DUP2 ADD SLOAD PUSH1 0x1 PUSH1 0x1 PUSH1 0xA0 SHL SUB AND CALLER EQ DUP1 PUSH2 0xE3C JUMPI POP PUSH1 0x2 DUP2 ADD SLOAD PUSH1 0x1 PUSH1 0x1 PUSH1 0xA0 SHL SUB AND CALLER EQ JUMPDEST DUP1 PUSH2 0xE6C JUMPI POP PUSH2 0xE6C PUSH32 0xD9D062B29C8756D894F301C5167D214C34D627724CD7FC859AB9329C9330CF51 CALLER PUSH2 0xCDD JUMP JUMPDEST PUSH2 0xEB1 JUMPI PUSH1 0x40 MLOAD PUSH3 0x461BCD PUSH1 0xE5 SHL DUP2 MSTORE PUSH1 0x20 PUSH1 0x4 DUP3 ADD MSTORE PUSH1 0x16 PUSH1 0x24 DUP3 ADD MSTORE PUSH22 0x141C9BDC195C9D1E4E881D5B985D5D1A1BDC9A5E9959 PUSH1 0x52 SHL PUSH1 0x44 DUP3 ADD MSTORE PUSH1 0x64 ADD PUSH2 0x408 JUMP JUMPDEST PUSH1 0x6 ADD DUP1 SLOAD PUSH8 0xFFFFFFFFFFFFFFFF TIMESTAMP AND PUSH1 0x1 PUSH1 0x48 SHL MUL PUSH17 0xFFFFFFFFFFFFFFFF0000000000000000FF NOT SWAP1 SWAP2 AND OR PUSH1 0x4 OR SWAP1 SSTORE POP POP PUSH1 0x1 DUP1 SSTORE JUMP JUMPDEST PUSH1 0x0 DUP3 DUP2 MSTORE PUSH1 0x20 DUP2 SWAP1 MSTORE PUSH1 0x40 SWAP1 KECCAK256 PUSH1 0x1 ADD SLOAD PUSH2 0xF06 DUP2 PUSH2 0x1373 JUMP JUMPDEST PUSH2 0x603 DUP4 DUP4 PUSH2 0x1404 JUMP JUMPDEST PUSH1 0x5 PUSH1 0x20 MSTORE DUP2 PUSH1 0x0 MSTORE PUSH1 0x40 PUSH1 0x0 KECCAK256 DUP2 DUP2 SLOAD DUP2 LT PUSH2 0x624 JUMPI PUSH1 0x0 DUP1 REVERT JUMPDEST PUSH1 0x0 PUSH2 0xF36 PUSH2 0x131A JUMP JUMPDEST PUSH1 0x1 PUSH1 0x1 PUSH1 0xA0 SHL SUB DUP4 AND ISZERO DUP1 ISZERO SWAP1 PUSH2 0xF56 JUMPI POP PUSH1 0x1 PUSH1 0x1 PUSH1 0xA0 SHL SUB DUP3 AND ISZERO ISZERO JUMPDEST PUSH2 0xF9B JUMPI PUSH1 0x40 MLOAD PUSH3 0x461BCD PUSH1 0xE5 SHL DUP2 MSTORE PUSH1 0x20 PUSH1 0x4 DUP3 ADD MSTORE PUSH1 0x16 PUSH1 0x24 DUP3 ADD MSTORE PUSH22 0x50726F70657274793A207A65726F2061646472657373 PUSH1 0x50 SHL PUSH1 0x44 DUP3 ADD MSTORE PUSH1 0x64 ADD PUSH2 0x408 JUMP JUMPDEST PUSH2 0xFC5 PUSH32 0x14DF5EE2861D7F34562399FFA112FC59B51F810D2B875C3609BA0C31AC873D0 DUP4 PUSH2 0xCDD JUMP JUMPDEST PUSH2 0x1011 JUMPI PUSH1 0x40 MLOAD PUSH3 0x461BCD PUSH1 0xE5 SHL DUP2 MSTORE PUSH1 0x20 PUSH1 0x4 DUP3 ADD MSTORE PUSH1 0x1F PUSH1 0x24 DUP3 ADD MSTORE PUSH32 0x50726F70657274793A206E6F74617279206E6F7420617574686F72697A656400 PUSH1 0x44 DUP3 ADD MSTORE PUSH1 0x64 ADD PUSH2 0x408 JUMP JUMPDEST PUSH1 0x2 DUP1 SLOAD SWAP1 PUSH1 0x0 PUSH2 0x1021 DUP4 PUSH2 0x192D JUMP JUMPDEST SWAP1 SWAP2 SSTORE POP POP PUSH1 0x2 DUP1 SLOAD PUSH1 0x0 DUP2 DUP2 MSTORE PUSH1 0x3 PUSH1 0x20 DUP2 DUP2 MSTORE PUSH1 0x40 DUP1 DUP5 KECCAK256 DUP6 DUP2 SSTORE PUSH1 0x1 DUP1 DUP3 ADD DUP1 SLOAD CALLER PUSH1 0x1 PUSH1 0x1 PUSH1 0xA0 SHL SUB NOT SWAP2 DUP3 AND DUP2 OR SWAP1 SWAP3 SSTORE SWAP9 DUP4 ADD DUP1 SLOAD DUP11 AND PUSH1 0x1 PUSH1 0x1 PUSH1 0xA0 SHL SUB DUP15 DUP2 AND SWAP2 DUP3 OR SWAP1 SWAP3 SSTORE SWAP7 DUP5 ADD DUP1 SLOAD SWAP1 SWAP11 AND SWAP1 DUP13 AND SWAP1 DUP2 OR SWAP1 SWAP10 SSTORE PUSH1 0x5 DUP1 DUP5 ADD DUP15 SWAP1 SSTORE PUSH1 0x6 DUP5 ADD DUP1 SLOAD PUSH17 0xFFFFFFFFFFFFFFFFFFFFFFFFFFFFFFFFFF NOT DUP2 AND PUSH8 0xFFFFFFFFFFFFFFFF PUSH1 0x48 SHL NOT TIMESTAMP PUSH8 0xFFFFFFFFFFFFFFFF SWAP1 DUP2 AND PUSH2 0x100 SWAP1 DUP2 MUL SWAP3 DUP4 AND SWAP4 SWAP1 SWAP4 OR PUSH9 0xFFFFFFFFFFFFFFFFFF NOT SWAP1 SWAP5 AND SWAP2 SWAP1 SWAP2 OR SWAP2 SWAP1 SWAP2 DIV AND PUSH1 0x1 PUSH1 0x48 SHL MUL OR SWAP1 SSTORE DUP2 DUP9 MSTORE PUSH1 0x4 DUP7 MSTORE DUP5 DUP9 KECCAK256 DUP1 SLOAD DUP1 DUP6 ADD DUP3 SSTORE SWAP1 DUP10 MSTORE DUP7 DUP10 KECCAK256 ADD DUP10 SWAP1 SSTORE DUP7 DUP9 MSTORE DUP6 MSTORE DUP4 DUP8 KECCAK256 DUP1 SLOAD SWAP3 DUP4 ADD DUP2 SSTORE DUP8 MSTORE SWAP6 DUP5 SWAP1 KECCAK256 ADD DUP7 SWAP1 SSTORE DUP2 MLOAD SWAP7 DUP8 MSTORE SWAP2 DUP7 ADD DUP11 SWAP1 MSTORE DUP1 MLOAD SWAP5 SWAP6 SWAP2 SWAP5 SWAP3 SWAP4 SWAP3 DUP7 SWAP3 PUSH32 0xC1AFF1652B20E14E1D7F2D339CE74E3DF41E7FB37ADEECE0B0104A3EA39C607A SWAP3 SWAP1 DUP3 SWAP1 SUB ADD SWAP1 LOG4 POP SWAP1 POP PUSH2 0x1169 PUSH1 0x1 DUP1 SSTORE JUMP JUMPDEST SWAP4 SWAP3 POP POP POP JUMP JUMPDEST PUSH1 0x0 DUP2 DUP2 MSTORE PUSH1 0x3 PUSH1 0x20 MSTORE PUSH1 0x40 DUP2 KECCAK256 SLOAD DUP3 SWAP2 SUB PUSH2 0x119E JUMPI PUSH1 0x40 MLOAD PUSH3 0x461BCD PUSH1 0xE5 SHL DUP2 MSTORE PUSH1 0x4 ADD PUSH2 0x408 SWAP1 PUSH2 0x18EA JUMP JUMPDEST PUSH2 0x11A6 PUSH2 0x131A JUMP JUMPDEST PUSH1 0x0 DUP3 DUP2 MSTORE PUSH1 0x3 PUSH1 0x20 MSTORE PUSH1 0x40 SWAP1 KECCAK256 PUSH2 0x11DE PUSH32 0xD9D062B29C8756D894F301C5167D214C34D627724CD7FC859AB9329C9330CF51 CALLER PUSH2 0xCDD JUMP JUMPDEST PUSH2 0x122A JUMPI PUSH1 0x40 MLOAD PUSH3 0x461BCD PUSH1 0xE5 SHL DUP2 MSTORE PUSH1 0x20 PUSH1 0x4 DUP3 ADD MSTORE PUSH1 0x18 PUSH1 0x24 DUP3 ADD MSTORE PUSH32 0x50726F70657274793A2063616C6C6572206E6F7420676F760000000000000000 PUSH1 0x44 DUP3 ADD MSTORE PUSH1 0x64 ADD PUSH2 0x408 JUMP JUMPDEST PUSH1 0x2 PUSH1 0x6 DUP3 ADD SLOAD PUSH1 0xFF AND PUSH1 0x5 DUP2 GT ISZERO PUSH2 0x1245 JUMPI PUSH2 0x1245 PUSH2 0x1784 JUMP JUMPDEST EQ PUSH2 0x1292 JUMPI PUSH1 0x40 MLOAD PUSH3 0x461BCD PUSH1 0xE5 SHL DUP2 MSTORE PUSH1 0x20 PUSH1 0x4 DUP3 ADD MSTORE PUSH1 0x17 PUSH1 0x24 DUP3 ADD MSTORE PUSH32 0x50726F70657274793A2077616974696E67206275796572000000000000000000 PUSH1 0x44 DUP3 ADD MSTORE PUSH1 0x64 ADD PUSH2 0x408 JUMP JUMPDEST PUSH1 0x4 DUP2 ADD DUP1 SLOAD PUSH1 0x1 PUSH1 0x1 PUSH1 0xA0 SHL SUB NOT AND CALLER SWAP1 DUP2 OR SWAP1 SWAP2 SSTORE PUSH1 0x6 DUP3 ADD DUP1 SLOAD PUSH1 0x3 PUSH1 0x1 PUSH1 0x98 SHL ADD PUSH20 0xFF0000FFFFFFFFFFFFFFFF0000000000000000FF NOT SWAP1 SWAP2 AND PUSH1 0x1 PUSH1 0x48 SHL TIMESTAMP PUSH8 0xFFFFFFFFFFFFFFFF AND MUL OR OR SWAP1 SSTORE PUSH1 0x40 MLOAD DUP5 SWAP1 PUSH32 0x8141BE8EC42735C6D9B070A4EEC645CEE34C78CF73C7F5F23AE5DE424DC7963F SWAP1 PUSH1 0x0 SWAP1 LOG3 POP PUSH2 0x862 PUSH1 0x1 DUP1 SSTORE JUMP JUMPDEST PUSH1 0x2 PUSH1 0x1 SLOAD SUB PUSH2 0x136C JUMPI PUSH1 0x40 MLOAD PUSH3 0x461BCD PUSH1 0xE5 SHL DUP2 MSTORE PUSH1 0x20 PUSH1 0x4 DUP3 ADD MSTORE PUSH1 0x1F PUSH1 0x24 DUP3 ADD MSTORE PUSH32 0x5265656E7472616E637947756172643A207265656E7472616E742063616C6C00 PUSH1 0x44 DUP3 ADD MSTORE PUSH1 0x64 ADD PUSH2 0x408 JUMP JUMPDEST PUSH1 0x2 PUSH1 0x1 SSTORE JUMP JUMPDEST PUSH2 0x137D DUP2 CALLER PUSH2 0x1469 JUMP JUMPDEST POP JUMP JUMPDEST PUSH2 0x138A DUP3 DUP3 PUSH2 0xCDD JUMP JUMPDEST PUSH2 0x862 JUMPI PUSH1 0x0 DUP3 DUP2 MSTORE PUSH1 0x20 DUP2 DUP2 MSTORE PUSH1 0x40 DUP1 DUP4 KECCAK256 PUSH1 0x1 PUSH1 0x1 PUSH1 0xA0 SHL SUB DUP6 AND DUP5 MSTORE SWAP1 SWAP2 MSTORE SWAP1 KECCAK256 DUP1 SLOAD PUSH1 0xFF NOT AND PUSH1 0x1 OR SWAP1 SSTORE PUSH2 0x13C0 CALLER SWAP1 JUMP JUMPDEST PUSH1 0x1 PUSH1 0x1 PUSH1 0xA0 SHL SUB AND DUP2 PUSH1 0x1 PUSH1 0x1 PUSH1 0xA0 SHL SUB AND DUP4 PUSH32 0x2F8788117E7EFF1D82E926EC794901D17C78024A50270940304540A733656F0D PUSH1 0x40 MLOAD PUSH1 0x40 MLOAD DUP1 SWAP2 SUB SWAP1 LOG4 POP POP JUMP JUMPDEST PUSH2 0x140E DUP3 DUP3 PUSH2 0xCDD JUMP JUMPDEST ISZERO PUSH2 0x862 JUMPI PUSH1 0x0 DUP3 DUP2 MSTORE PUSH1 0x20 DUP2 DUP2 MSTORE PUSH1 0x40 DUP1 DUP4 KECCAK256 PUSH1 0x1 PUSH1 0x1 PUSH1 0xA0 SHL SUB DUP6 AND DUP1 DUP6 MSTORE SWAP3 MSTORE DUP1 DUP4 KECCAK256 DUP1 SLOAD PUSH1 0xFF NOT AND SWAP1 SSTORE MLOAD CALLER SWAP3 DUP6 SWAP2 PUSH32 0xF6391F5C32D9C69D2A47EA670B442974B53935D1EDC7FD64EB21E047A839171B SWAP2 SWAP1 LOG4 POP POP JUMP JUMPDEST PUSH2 0x1473 DUP3 DUP3 PUSH2 0xCDD JUMP JUMPDEST PUSH2 0x862 JUMPI PUSH2 0x1480 DUP2 PUSH2 0x14C2 JUMP JUMPDEST PUSH2 0x148B DUP4 PUSH1 0x20 PUSH2 0x14D4 JUMP JUMPDEST PUSH1 0x40 MLOAD PUSH1 0x20 ADD PUSH2 0x149C SWAP3 SWAP2 SWAP1 PUSH2 0x196A JUMP JUMPDEST PUSH1 0x40 DUP1 MLOAD PUSH1 0x1F NOT DUP2 DUP5 SUB ADD DUP2 MSTORE SWAP1 DUP3 SWAP1 MSTORE PUSH3 0x461BCD PUSH1 0xE5 SHL DUP3 MSTORE PUSH2 0x408 SWAP2 PUSH1 0x4 ADD PUSH2 0x19DF JUMP JUMPDEST PUSH1 0x60 PUSH2 0x368 PUSH1 0x1 PUSH1 0x1 PUSH1 0xA0 SHL SUB DUP4 AND PUSH1 0x14 JUMPDEST PUSH1 0x60 PUSH1 0x0 PUSH2 0x14E3 DUP4 PUSH1 0x2 PUSH2 0x1A12 JUMP JUMPDEST PUSH2 0x14EE SWAP1 PUSH1 0x2 PUSH2 0x1A29 JUMP JUMPDEST PUSH8 0xFFFFFFFFFFFFFFFF DUP2 GT ISZERO PUSH2 0x1506 JUMPI PUSH2 0x1506 PUSH2 0x1A3C JUMP JUMPDEST PUSH1 0x40 MLOAD SWAP1 DUP1 DUP3 MSTORE DUP1 PUSH1 0x1F ADD PUSH1 0x1F NOT AND PUSH1 0x20 ADD DUP3 ADD PUSH1 0x40 MSTORE DUP1 ISZERO PUSH2 0x1530 JUMPI PUSH1 0x20 DUP3 ADD DUP2 DUP1 CALLDATASIZE DUP4 CALLDATACOPY ADD SWAP1 POP JUMPDEST POP SWAP1 POP PUSH1 0x3 PUSH1 0xFC SHL DUP2 PUSH1 0x0 DUP2 MLOAD DUP2 LT PUSH2 0x154B JUMPI PUSH2 0x154B PUSH2 0x1A52 JUMP JUMPDEST PUSH1 0x20 ADD ADD SWAP1 PUSH1 0x1 PUSH1 0x1 PUSH1 0xF8 SHL SUB NOT AND SWAP1 DUP2 PUSH1 0x0 BYTE SWAP1 MSTORE8 POP PUSH1 0xF PUSH1 0xFB SHL DUP2 PUSH1 0x1 DUP2 MLOAD DUP2 LT PUSH2 0x157A JUMPI PUSH2 0x157A PUSH2 0x1A52 JUMP JUMPDEST PUSH1 0x20 ADD ADD SWAP1 PUSH1 0x1 PUSH1 0x1 PUSH1 0xF8 SHL SUB NOT AND SWAP1 DUP2 PUSH1 0x0 BYTE SWAP1 MSTORE8 POP PUSH1 0x0 PUSH2 0x159E DUP5 PUSH1 0x2 PUSH2 0x1A12 JUMP JUMPDEST PUSH2 0x15A9 SWAP1 PUSH1 0x1 PUSH2 0x1A29 JUMP JUMPDEST SWAP1 POP JUMPDEST PUSH1 0x1 DUP2 GT ISZERO PUSH2 0x1621 JUMPI PUSH16 0x181899199A1A9B1B9C1CB0B131B232B3 PUSH1 0x81 SHL DUP6 PUSH1 0xF AND PUSH1 0x10 DUP2 LT PUSH2 0x15DD JUMPI PUSH2 0x15DD PUSH2 0x1A52 JUMP JUMPDEST BYTE PUSH1 0xF8 SHL DUP3 DUP3 DUP2 MLOAD DUP2 LT PUSH2 0x15F3 JUMPI PUSH2 0x15F3 PUSH2 0x1A52 JUMP JUMPDEST PUSH1 0x20 ADD ADD SWAP1 PUSH1 0x1 PUSH1 0x1 PUSH1 0xF8 SHL SUB NOT AND SWAP1 DUP2 PUSH1 0x0 BYTE SWAP1 MSTORE8 POP PUSH1 0x4 SWAP5 SWAP1 SWAP5 SHR SWAP4 PUSH2 0x161A DUP2 PUSH2 0x1A68 JUMP JUMPDEST SWAP1 POP PUSH2 0x15AC JUMP JUMPDEST POP DUP4 ISZERO PUSH2 0x1169 JUMPI PUSH1 0x40 MLOAD PUSH3 0x461BCD PUSH1 0xE5 SHL DUP2 MSTORE PUSH1 0x20 PUSH1 0x4 DUP3 ADD DUP2 SWAP1 MSTORE PUSH1 0x24 DUP3 ADD MSTORE PUSH32 0x537472696E67733A20686578206C656E67746820696E73756666696369656E74 PUSH1 0x44 DUP3 ADD MSTORE PUSH1 0x64 ADD PUSH2 0x408 JUMP JUMPDEST PUSH1 0x0 PUSH1 0x20 DUP3 DUP5 SUB SLT ISZERO PUSH2 0x1682 JUMPI PUSH1 0x0 DUP1 REVERT JUMPDEST DUP2 CALLDATALOAD PUSH1 0x1 PUSH1 0x1 PUSH1 0xE0 SHL SUB NOT DUP2 AND DUP2 EQ PUSH2 0x1169 JUMPI PUSH1 0x0 DUP1 REVERT JUMPDEST DUP1 CALLDATALOAD PUSH1 0x1 PUSH1 0x1 PUSH1 0xA0 SHL SUB DUP2 AND DUP2 EQ PUSH2 0x16B1 JUMPI PUSH1 0x0 DUP1 REVERT JUMPDEST SWAP2 SWAP1 POP JUMP JUMPDEST PUSH1 0x0 PUSH1 0x20 DUP3 DUP5 SUB SLT ISZERO PUSH2 0x16C8 JUMPI PUSH1 0x0 DUP1 REVERT JUMPDEST PUSH2 0x1169 DUP3 PUSH2 0x169A JUMP JUMPDEST PUSH1 0x20 DUP1 DUP3 MSTORE DUP3 MLOAD DUP3 DUP3 ADD DUP2 SWAP1 MSTORE PUSH1 0x0 SWAP2 SWAP1 DUP5 DUP3 ADD SWAP1 PUSH1 0x40 DUP6 ADD SWAP1 DUP5 JUMPDEST DUP2 DUP2 LT ISZERO PUSH2 0x1709 JUMPI DUP4 MLOAD DUP4 MSTORE SWAP3 DUP5 ADD SWAP3 SWAP2 DUP5 ADD SWAP2 PUSH1 0x1 ADD PUSH2 0x16ED JUMP JUMPDEST POP SWAP1 SWAP7 SWAP6 POP POP POP POP POP POP JUMP JUMPDEST PUSH1 0x0 PUSH1 0x20 DUP3 DUP5 SUB SLT ISZERO PUSH2 0x1727 JUMPI PUSH1 0x0 DUP1 REVERT JUMPDEST POP CALLDATALOAD SWAP2 SWAP1 POP JUMP JUMPDEST PUSH1 0x0 DUP1 PUSH1 0x40 DUP4 DUP6 SUB SLT ISZERO PUSH2 0x1741 JUMPI PUSH1 0x0 DUP1 REVERT JUMPDEST DUP3 CALLDATALOAD SWAP2 POP PUSH2 0x1751 PUSH1 0x20 DUP5 ADD PUSH2 0x169A JUMP JUMPDEST SWAP1 POP SWAP3 POP SWAP3 SWAP1 POP JUMP JUMPDEST PUSH1 0x0 DUP1 PUSH1 0x40 DUP4 DUP6 SUB SLT ISZERO PUSH2 0x176D JUMPI PUSH1 0x0 DUP1 REVERT JUMPDEST PUSH2 0x1776 DUP4 PUSH2 0x169A JUMP JUMPDEST SWAP5 PUSH1 0x20 SWAP4 SWAP1 SWAP4 ADD CALLDATALOAD SWAP4 POP POP POP JUMP JUMPDEST PUSH4 0x4E487B71 PUSH1 0xE0 SHL PUSH1 0x0 MSTORE PUSH1 0x21 PUSH1 0x4 MSTORE PUSH1 0x24 PUSH1 0x0 REVERT JUMPDEST PUSH1 0x6 DUP2 LT PUSH2 0x17B8 JUMPI PUSH4 0x4E487B71 PUSH1 0xE0 SHL PUSH1 0x0 MSTORE PUSH1 0x21 PUSH1 0x4 MSTORE PUSH1 0x24 PUSH1 0x0 REVERT JUMPDEST SWAP1 MSTORE JUMP JUMPDEST DUP2 MLOAD DUP2 MSTORE PUSH1 0x20 DUP1 DUP4 ADD MLOAD PUSH2 0x180 DUP4 ADD SWAP2 PUSH2 0x17E0 SWAP1 DUP5 ADD DUP3 PUSH1 0x1 PUSH1 0x1 PUSH1 0xA0 SHL SUB AND SWAP1 MSTORE JUMP JUMPDEST POP PUSH1 0x40 DUP4 ADD MLOAD PUSH2 0x17FB PUSH1 0x40 DUP5 ADD DUP3 PUSH1 0x1 PUSH1 0x1 PUSH1 0xA0 SHL SUB AND SWAP1 MSTORE JUMP JUMPDEST POP PUSH1 0x60 DUP4 ADD MLOAD PUSH2 0x1816 PUSH1 0x60 DUP5 ADD DUP3 PUSH1 0x1 PUSH1 0x1 PUSH1 0xA0 SHL SUB AND SWAP1 MSTORE JUMP JUMPDEST POP PUSH1 0x80 DUP4 ADD MLOAD PUSH2 0x1831 PUSH1 0x80 DUP5 ADD DUP3 PUSH1 0x1 PUSH1 0x1 PUSH1 0xA0 SHL SUB AND SWAP1 MSTORE JUMP JUMPDEST POP PUSH1 0xA0 DUP4 ADD MLOAD PUSH1 0xA0 DUP4 ADD MSTORE PUSH1 0xC0 DUP4 ADD MLOAD PUSH2 0x184E PUSH1 0xC0 DUP5 ADD DUP3 PUSH2 0x179A JUMP JUMPDEST POP PUSH1 0xE0 DUP4 ADD MLOAD PUSH2 0x186A PUSH1 0xE0 DUP5 ADD DUP3 PUSH8 0xFFFFFFFFFFFFFFFF AND SWAP1 MSTORE JUMP JUMPDEST POP PUSH2 0x100 DUP4 DUP2 ADD MLOAD PUSH8 0xFFFFFFFFFFFFFFFF AND SWAP1 DUP4 ADD MSTORE PUSH2 0x120 DUP1 DUP5 ADD MLOAD ISZERO ISZERO SWAP1 DUP4 ADD MSTORE PUSH2 0x140 DUP1 DUP5 ADD MLOAD ISZERO ISZERO SWAP1 DUP4 ADD MSTORE PUSH2 0x160 SWAP3 DUP4 ADD MLOAD ISZERO ISZERO SWAP3 SWAP1 SWAP2 ADD SWAP2 SWAP1 SWAP2 MSTORE SWAP1 JUMP JUMPDEST PUSH1 0x0 DUP1 PUSH1 0x0 PUSH1 0x60 DUP5 DUP7 SUB SLT ISZERO PUSH2 0x18C3 JUMPI PUSH1 0x0 DUP1 REVERT JUMPDEST DUP4 CALLDATALOAD SWAP3 POP PUSH2 0x18D3 PUSH1 0x20 DUP6 ADD PUSH2 0x169A JUMP JUMPDEST SWAP2 POP PUSH2 0x18E1 PUSH1 0x40 DUP6 ADD PUSH2 0x169A JUMP JUMPDEST SWAP1 POP SWAP3 POP SWAP3 POP SWAP3 JUMP JUMPDEST PUSH1 0x20 DUP1 DUP3 MSTORE PUSH1 0x13 SWAP1 DUP3 ADD MSTORE PUSH19 0x141C9BDC195C9D1E4E881B9BDD08199BDD5B99 PUSH1 0x6A SHL PUSH1 0x40 DUP3 ADD MSTORE PUSH1 0x60 ADD SWAP1 JUMP JUMPDEST PUSH4 0x4E487B71 PUSH1 0xE0 SHL PUSH1 0x0 MSTORE PUSH1 0x11 PUSH1 0x4 MSTORE PUSH1 0x24 PUSH1 0x0 REVERT JUMPDEST PUSH1 0x0 PUSH1 0x1 DUP3 ADD PUSH2 0x193F JUMPI PUSH2 0x193F PUSH2 0x1917 JUMP JUMPDEST POP PUSH1 0x1 ADD SWAP1 JUMP JUMPDEST PUSH1 0x0 JUMPDEST DUP4 DUP2 LT ISZERO PUSH2 0x1961 JUMPI DUP2 DUP2 ADD MLOAD DUP4 DUP3 ADD MSTORE PUSH1 0x20 ADD PUSH2 0x1949 JUMP JUMPDEST POP POP PUSH1 0x0 SWAP2 ADD MSTORE JUMP JUMPDEST PUSH32 0x416363657373436F6E74726F6C3A206163636F756E7420000000000000000000 DUP2 MSTORE PUSH1 0x0 DUP4 MLOAD PUSH2 0x19A2 DUP2 PUSH1 0x17 DUP6 ADD PUSH1 0x20 DUP9 ADD PUSH2 0x1946 JUMP JUMPDEST PUSH17 0x1034B99036B4B9B9B4B733903937B6329 PUSH1 0x7D SHL PUSH1 0x17 SWAP2 DUP5 ADD SWAP2 DUP3 ADD MSTORE DUP4 MLOAD PUSH2 0x19D3 DUP2 PUSH1 0x28 DUP5 ADD PUSH1 0x20 DUP9 ADD PUSH2 0x1946 JUMP JUMPDEST ADD PUSH1 0x28 ADD SWAP5 SWAP4 POP POP POP POP JUMP JUMPDEST PUSH1 0x20 DUP2 MSTORE PUSH1 0x0 DUP3 MLOAD DUP1 PUSH1 0x20 DUP5 ADD MSTORE PUSH2 0x19FE DUP2 PUSH1 0x40 DUP6 ADD PUSH1 0x20 DUP8 ADD PUSH2 0x1946 JUMP JUMPDEST PUSH1 0x1F ADD PUSH1 0x1F NOT AND SWAP2 SWAP1 SWAP2 ADD PUSH1 0x40 ADD SWAP3 SWAP2 POP POP JUMP JUMPDEST DUP1 DUP3 MUL DUP2 ISZERO DUP3 DUP3 DIV DUP5 EQ OR PUSH2 0x368 JUMPI PUSH2 0x368 PUSH2 0x1917 JUMP JUMPDEST DUP1 DUP3 ADD DUP1 DUP3 GT ISZERO PUSH2 0x368 JUMPI PUSH2 0x368 PUSH2 0x1917 JUMP JUMPDEST PUSH4 0x4E487B71 PUSH1 0xE0 SHL PUSH1 0x0 MSTORE PUSH1 0x41 PUSH1 0x4 MSTORE PUSH1 0x24 PUSH1 0x0 REVERT JUMPDEST PUSH4 0x4E487B71 PUSH1 0xE0 SHL PUSH1 0x0 MSTORE PUSH1 0x32 PUSH1 0x4 MSTORE PUSH1 0x24 PUSH1 0x0 REVERT JUMPDEST PUSH1 0x0 DUP2 PUSH2 0x1A77 JUMPI PUSH2 0x1A77 PUSH2 0x1917 JUMP JUMPDEST POP PUSH1 0x0 NOT ADD SWAP1 JUMP INVALID LOG2 PUSH5 0x6970667358 0x22 SLT KECCAK256 LOG1 AND 0xCD PUSH25 0xEBEF66D017A9D2C0691DA1189315275F8EEEF142C298838F82 0xE8 0xD3 LOG2 PUSH5 0x736F6C6343 STOP ADDMOD ISZERO STOP CALLER "},"methodIdentifiers":{"DEFAULT_ADMIN_ROLE()":"a217fddf","GOVERNMENT_ROLE()":"9cbed582","NOTARY_ROLE()":"c48b0baa","buyerApprove(uint256)":"74569c91","byBuyer(address,uint256)":"d7ff4020","bySeller(address,uint256)":"29f9766e","cancel(uint256)":"40e58ee5","getProperty(uint256)":"32665ffb","getRoleAdmin(bytes32)":"248a9ca3","governmentSeal(uint256)":"eb73425d","grantRole(bytes32,address)":"2f2ff15d","hasRole(bytes32,address)":"91d14854","listByBuyer(address)":"bc712538","listBySeller(address)":"031306ec","markCompleted(uint256)":"cac5c512","notaryApprove(uint256)":"910b2882","registerProperty(bytes32,address,address)":"dbe51721","renounceRole(bytes32,address)":"36568abe","revokeRole(bytes32,address)":"d547741f","supportsInterface(bytes4)":"01ffc9a7","transferOwnership(uint256,address)":"29507f73"}}}}}