{
  "_format": "hh-sol-artifact-1",
  "contractName": "PropertyRegistry",
  "sourceName": "contracts/PropertyRegistry.sol",
  "abi": [
    {
      "inputs": [
        {
          "internalType": "address",
          "name": "admin",
          "type": "address"
        }
      ],
      "stateMutability": "nonpayable",
      "type": "constructor"
    },
    {
      "anonymous": false,
      "inputs": [
        {
          "indexed": true,
          "internalType": "uint256",
          "name": "id",
          "type": "uint256"
        },
        {
          "indexed": true,
          "internalType": "address",
          "name": "buyer",
          "type": "address"
        }
      ],
      "name": "BuyerApproved",
      "type": "event"
    },
    {
      "anonymous": false,
      "inputs": [
        {
          "indexed": true,
          "internalType": "uint256",
          "name": "id",
          "type": "uint256"
        },
        {
          "indexed": true,
          "internalType": "address",
          "name": "seller",
          "type": "address"
        }
      ],
      "name": "Cancelled",
      "type": "event"
    },
    {
      "anonymous": false,
      "inputs": [
        {
          "indexed": true,
          "internalType": "uint256",
          "name": "id",
          "type": "uint256"
        },
        {
          "indexed": true,
          "internalType": "address",
          "name": "government",
          "type": "address"
        }
      ],
      "name": "GovernmentSealed",
      "type": "event"
    },
    {
      "anonymous": false,
      "inputs": [
        {
          "indexed": true,
          "internalType": "uint256",
          "name": "id",
          "type": "uint256"
        },
        {
          "indexed": true,
          "internalType": "address",
          "name": "notary",
          "type": "address"
        }
      ],
      "name": "NotaryApproved",
      "type": "event"
    },
    {
      "anonymous": false,
      "inputs": [
        {
          "indexed": true,
          "internalType": "uint256",
          "name": "id",
          "type": "uint256"
        },
        {
          "indexed": true,
          "internalType": "address",
          "name": "oldSeller",
          "type": "address"
        },
        {
          "indexed": true,
          "internalType": "address",
          "name": "newSeller",
          "type": "address"
        }
      ],
      "name": "OwnershipTransferred",
      "type": "event"
    },
    {
      "anonymous": false,
      "inputs": [
        {
          "indexed": true,
          "internalType": "uint256",
          "name": "id",
          "type": "uint256"
        },
        {
          "indexed": true,
          "internalType": "address",
          "name": "seller",
          "type": "address"
        },
        {
          "indexed": true,
          "internalType": "address",
          "name": "buyer",
          "type": "address"
        },
        {
          "indexed": false,
          "internalType": "address",
          "name": "notary",
          "type": "address"
        },
        {
          "indexed": false,
          "internalType": "bytes32",
          "name": "docHash",
          "type": "bytes32"
        }
      ],
      "name": "PropertyRegistered",
      "type": "event"
    },
    {
      "anonymous": false,
      "inputs": [
        {
          "indexed": true,
          "internalType": "bytes32",
          "name": "role",
          "type": "bytes32"
        },
        {
          "indexed": true,
          "internalType": "bytes32",
          "name": "previousAdminRole",
          "type": "bytes32"
        },
        {
          "indexed": true,
          "internalType": "bytes32",
          "name": "newAdminRole",
          "type": "bytes32"
        }
      ],
      "name": "RoleAdminChanged",
      "type": "event"
    },
    {
      "anonymous": false,
      "inputs": [
        {
          "indexed": true,
          "internalType": "bytes32",
          "name": "role",
          "type": "bytes32"
        },
        {
          "indexed": true,
          "internalType": "address",
          "name": "account",
          "type": "address"
        },
        {
          "indexed": true,
          "internalType": "address",
          "name": "sender",
          "type": "address"
        }
      ],
      "name": "RoleGranted",
      "type": "event"
    },
    {
      "anonymous": false,
      "inputs": [
        {
          "indexed": true,
          "internalType": "bytes32",
          "name": "role",
          "type": "bytes32"
        },
        {
          "indexed": true,
          "internalType": "address",
          "name": "account",
          "type": "address"
        },
        {
          "indexed": true,
          "internalType": "address",
          "name": "sender",
          "type": "address"
        }
      ],
      "name": "RoleRevoked",
      "type": "event"
    },
    {
      "inputs": [],
      "name": "DEFAULT_ADMIN_ROLE",
      "outputs": [
        {
          "internalType": "bytes32",
          "name": "",
          "type": "bytes32"
        }
      ],
      "stateMutability": "view",
      "type": "function"
    },
    {
      "inputs": [],
      "name": "GOVERNMENT_ROLE",
      "outputs": [
        {
          "internalType": "bytes32",
          "name": "",
          "type": "bytes32"
        }
      ],
      "stateMutability": "view",
      "type": "function"
    },
    {
      "inputs": [],
      "name": "NOTARY_ROLE",
      "outputs": [
        {
          "internalType": "bytes32",
          "name": "",
          "type": "bytes32"
        }
      ],
      "stateMutability": "view",
      "type": "function"
    },
    {
      "inputs": [
        {
          "internalType": "uint256",
          "name": "propertyId",
          "type": "uint256"
        }
      ],
      "name": "buyerApprove",
      "outputs": [],
      "stateMutability": "nonpayable",
      "type": "function"
    },
    {
      "inputs": [
        {
          "internalType": "address",
          "name": "",
          "type": "address"
        },
        {
          "internalType": "uint256",
          "name": "",
          "type": "uint256"
        }
      ],
      "name": "byBuyer",
      "outputs": [
        {
          "internalType": "uint256",
          "name": "",
          "type": "uint256"
        }
      ],
      "stateMutability": "view",
      "type": "function"
    },
    {
      "inputs": [
        {
          "internalType": "address",
          "name": "",
          "type": "address"
        },
        {
          "internalType": "uint256",
          "name": "",
          "type": "uint256"
        }
      ],
      "name": "bySeller",
      "outputs": [
        {
          "internalType": "uint256",
          "name": "",
          "type": "uint256"
        }
      ],
      "stateMutability": "view",
      "type": "function"
    },
    {
      "inputs": [
        {
          "internalType": "uint256",
          "name": "propertyId",
          "type": "uint256"
        }
      ],
      "name": "cancel",
      "outputs": [],
      "stateMutability": "nonpayable",
      "type": "function"
    },
    {
      "inputs": [
        {
          "internalType": "uint256",
          "name": "propertyId",
          "type": "uint256"
        }
      ],
      "name": "getProperty",
      "outputs": [
        {
          "components": [
            {
              "internalType": "uint256",
              "name": "id",
              "type": "uint256"
            },
            {
              "internalType": "address",
              "name": "seller",
              "type": "address"
            },
            {
              "internalType": "address",
              "name": "buyer",
              "type": "address"
            },
            {
              "internalType": "address",
              "name": "notary",
              "type": "address"
            },
            {
              "internalType": "address",
              "name": "government",
              "type": "address"
            },
            {
              "internalType": "bytes32",
              "name": "docHash",
              "type": "bytes32"
            },
            {
              "internalType": "enum PropertyRegistry.Status",
              "name": "status",
              "type": "uint8"
            },
            {
              "internalType": "uint64",
              "name": "createdAt",
              "type": "uint64"
            },
            {
              "internalType": "uint64",
              "name": "updatedAt",
              "type": "uint64"
            },
            {
              "internalType": "bool",
              "name": "buyerApproved",
              "type": "bool"
            },
            {
              "internalType": "bool",
              "name": "notaryApproved",
              "type": "bool"
            },
            {
              "internalType": "bool",
              "name": "governmentSealed",
              "type": "bool"
            }
          ],
          "internalType": "struct PropertyRegistry.Property",
          "name": "",
          "type": "tuple"
        }
      ],
      "stateMutability": "view",
      "type": "function"
    },
    {
      "inputs": [
        {
          "internalType": "bytes32",
          "name": "role",
          "type": "bytes32"
        }
      ],
      "name": "getRoleAdmin",
      "outputs": [
        {
          "internalType": "bytes32",
          "name": "",
          "type": "bytes32"
        }
      ],
      "stateMutability": "view",
      "type": "function"
    },
    {
      "inputs": [
        {
          "internalType": "uint256",
          "name": "propertyId",
          "type": "uint256"
        }
      ],
      "name": "governmentSeal",
      "outputs": [],
      "stateMutability": "nonpayable",
      "type": "function"
    },
    {
      "inputs": [
        {
          "internalType": "bytes32",
          "name": "role",
          "type": "bytes32"
        },
        {
          "internalType": "address",
          "name": "account",
          "type": "address"
        }
      ],
      "name": "grantRole",
      "outputs": [],
      "stateMutability": "nonpayable",
      "type": "function"
    },
    {
      "inputs": [
        {
          "internalType": "bytes32",
          "name": "role",
          "type": "bytes32"
        },
        {
          "internalType": "address",
          "name": "account",
          "type": "address"
        }
      ],
      "name": "hasRole",
      "outputs": [
        {
          "internalType": "bool",
          "name": "",
          "type": "bool"
        }
      ],
      "stateMutability": "view",
      "type": "function"
    },
    {
      "inputs": [
        {
          "internalType": "address",
          "name": "buyer",
          "type": "address"
        }
      ],
      "name": "listByBuyer",
      "outputs": [
        {
          "internalType": "uint256[]",
          "name": "",
          "type": "uint256[]"
        }
      ],
      "stateMutability": "view",
      "type": "function"
    },
    {
      "inputs": [
        {
          "internalType": "address",
          "name": "seller",
          "type": "address"
        }
      ],
      "name": "listBySeller",
      "outputs": [
        {
          "internalType": "uint256[]",
          "name": "",
          "type": "uint256[]"
        }
      ],
      "stateMutability": "view",
      "type": "function"
    },
    {
      "inputs": [
        {
          "internalType": "uint256",
          "name": "propertyId",
          "type": "uint256"
        }
      ],
      "name": "markCompleted",
      "outputs": [],
      "stateMutability": "nonpayable",
      "type": "function"
    },
    {
      "inputs": [
        {
          "internalType": "uint256",
          "name": "propertyId",
          "type": "uint256"
        }
      ],
      "name": "notaryApprove",
      "outputs": [],
      "stateMutability": "nonpayable",
      "type": "function"
    },
    {
      "inputs": [
        {
          "internalType": "bytes32",
          "name": "docHash",
          "type": "bytes32"
        },
        {
          "internalType": "address",
          "name": "buyer",
          "type": "address"
        },
        {
          "internalType": "address",
          "name": "notary",
          "type": "address"
        }
      ],
      "name": "registerProperty",
      "outputs": [
        {
          "internalType": "uint256",
          "name": "",
          "type": "uint256"
        }
      ],
      "stateMutability": "nonpayable",
      "type": "function"
    },
    {
      "inputs": [
        {
          "internalType": "bytes32",
          "name": "role",
          "type": "bytes32"
        },
        {
          "internalType": "address",
          "name": "account",
          "type": "address"
        }
      ],
      "name": "renounceRole",
      "outputs": [],
      "stateMutability": "nonpayable",
      "type": "function"
    },
    {
      "inputs": [
        {
          "internalType": "bytes32",
          "name": "role",
          "type": "bytes32"
        },
        {
          "internalType": "address",
          "name": "account",
          "type": "address"
        }
      ],
      "name": "revokeRole",
      "outputs": [],
      "stateMutability": "nonpayable",
      "type": "function"
    },
    {
      "inputs": [
        {
          "internalType": "bytes4",
          "name": "interfaceId",
          "type": "bytes4"
        }
      ],
      "name": "supportsInterface",
      "outputs": [
        {
          "internalType": "bool",
          "name": "",
          "type": "bool"
        }
      ],
      "stateMutability": "view",
      "type": "function"
    },
    {
      "inputs": [
        {
          "internalType": "uint256",
          "name": "propertyId",
          "type": "uint256"
        },
        {
          "internalType": "address",
          "name": "newSeller",
          "type": "address"
        }
      ],
      "name": "transferOwnership",
      "outputs": [],
      "stateMutability": "nonpayable",
      "type": "function"
    }
  ],
  "bytecode": "0x60806040523480156200001157600080fd5b5060405162001be438038062001be48339810160408190526200003491620000ed565b60018055620000456000826200004c565b506200011f565b6000828152602081815260408083206001600160a01b038516845290915290205460ff16620000e9576000828152602081815260408083206001600160a01b03851684529091529020805460ff19166001179055620000a83390565b6001600160a01b0316816001600160a01b0316837f2f8788117e7eff1d82e926ec794901d17c78024a50270940304540a733656f0d60405160405180910390a45b5050565b6000602082840312156200010057600080fd5b81516001600160a01b03811681146200011857600080fd5b9392505050565b611ab5806200012f6000396000f3fe608060405234801561001057600080fd5b50600436106101375760003560e01c8063910b2882116100b8578063c48b0baa1161007c578063c48b0baa146102b1578063cac5c512146102d8578063d547741f146102eb578063d7ff4020146102fe578063dbe5172114610311578063eb73425d1461032457600080fd5b8063910b28821461024957806391d148541461025c5780639cbed5821461026f578063a217fddf14610296578063bc7125381461029e57600080fd5b80632f2ff15d116100ff5780632f2ff15d146101dd57806332665ffb146101f057806336568abe1461021057806340e58ee51461022357806374569c911461023657600080fd5b806301ffc9a71461013c578063031306ec14610164578063248a9ca31461018457806329507f73146101b557806329f9766e146101ca575b600080fd5b61014f61014a366004611670565b610337565b60405190151581526020015b60405180910390f35b6101776101723660046116b6565b61036e565b60405161015b91906116d1565b6101a7610192366004611715565b60009081526020819052604090206001015490565b60405190815260200161015b565b6101c86101c336600461172e565b6103da565b005b6101a76101d836600461175a565b610608565b6101c86101eb36600461172e565b610639565b6102036101fe366004611715565b61065e565b60405161015b91906117bc565b6101c861021e36600461172e565b6107e8565b6101c8610231366004611715565b610866565b6101c8610244366004611715565b6109d8565b6101c8610257366004611715565b610b5c565b61014f61026a36600461172e565b610cdd565b6101a77fd9d062b29c8756d894f301c5167d214c34d627724cd7fc859ab9329c9330cf5181565b6101a7600081565b6101776102ac3660046116b6565b610d06565b6101a77f014df5ee2861d7f34562399ffa112fc59b51f810d2b875c3609ba0c31ac873d081565b6101c86102e6366004611715565b610d70565b6101c86102f936600461172e565b610eeb565b6101a761030c36600461175a565b610f10565b6101a761031f3660046118ae565b610f2c565b6101c8610332366004611715565b611170565b60006001600160e01b03198216637965db0b60e01b148061036857506301ffc9a760e01b6001600160e01b03198316145b92915050565b6001600160a01b0381166000908152600460209081526040918290208054835181840281018401909452808452606093928301828280156103ce57602002820191906000526020600020905b8154815260200190600101908083116103ba575b50505050509050919050565b6000828152600360205260408120548391036104115760405162461bcd60e51b8152600401610408906118ea565b60405180910390fd5b61041961131a565b600083815260036020526040902060018101546001600160a01b031633146104835760405162461bcd60e51b815260206004820152601b60248201527f50726f70657274793a2063616c6c6572206e6f742073656c6c657200000000006044820152606401610408565b6003600682015460ff16600581111561049e5761049e611784565b14806104c257506004600682015460ff1660058111156104c0576104c0611784565b145b61050e5760405162461bcd60e51b815260206004820152601760248201527f50726f70657274793a206e6f742066696e616c697a65640000000000000000006044820152606401610408565b6001600160a01b03831661055d5760405162461bcd60e51b815260206004820152601660248201527550726f70657274793a207a65726f206164647265737360501b6044820152606401610408565b600180820180546001600160a01b038681166001600160a01b03198316811790935560068501805467ffffffffffffffff4216600160481b0267ffffffffffffffff60481b1990911617905560008381526004602090815260408083208054978801815583529082209095018990559351911692839188917f16b85f49bf01212961345d3016c9a531894accf62eb7680f2045d79185cc0ec091a4505061060360018055565b505050565b6004602052816000526040600020818154811061062457600080fd5b90600052602060002001600091509150505481565b60008281526020819052604090206001015461065481611373565b6106038383611380565b6040805161018081018252600080825260208201819052918101829052606081018290526080810182905260a0810182905260c0810182905260e081018290526101008101829052610120810182905261014081018290526101608101919091526000828152600360205260408120548391036106ed5760405162461bcd60e51b8152600401610408906118ea565b6000838152600360208181526040928390208351610180810185528154815260018201546001600160a01b039081169382019390935260028201548316948101949094529182015481166060840152600482015416608083015260058082015460a0840152600682015460c084019160ff9091169081111561077157610771611784565b600581111561078257610782611784565b81526006919091015467ffffffffffffffff610100820481166020840152600160481b820416604083015260ff600160881b8204811615156060840152600160901b8204811615156080840152600160981b90910416151560a090910152915050919050565b6001600160a01b03811633146108585760405162461bcd60e51b815260206004820152602f60248201527f416363657373436f6e74726f6c3a2063616e206f6e6c792072656e6f756e636560448201526e103937b632b9903337b91039b2b63360891b6064820152608401610408565b6108628282611404565b5050565b6000818152600360205260408120548291036108945760405162461bcd60e51b8152600401610408906118ea565b61089c61131a565b600082815260036020526040902060018101546001600160a01b031633146109065760405162461bcd60e51b815260206004820152601b60248201527f50726f70657274793a2063616c6c6572206e6f742073656c6c657200000000006044820152606401610408565b6000600682015460ff16600581111561092157610921611784565b1461096e5760405162461bcd60e51b815260206004820152601b60248201527f50726f70657274793a2063616e6e6f742063616e63656c206e6f7700000000006044820152606401610408565b60068101805467ffffffffffffffff4216600160481b0270ffffffffffffffff0000000000000000ff19909116176005179055604051339084907f26deca31ff8139a06c52453ce8985d34f7648a6d9af1d283c4063d052c355a0f90600090a35061086260018055565b600081815260036020526040812054829103610a065760405162461bcd60e51b8152600401610408906118ea565b610a0e61131a565b600082815260036020526040902060028101546001600160a01b03163314610a785760405162461bcd60e51b815260206004820152601a60248201527f50726f70657274793a2063616c6c6572206e6f742062757965720000000000006044820152606401610408565b6001600682015460ff166005811115610a9357610a93611784565b14610ae05760405162461bcd60e51b815260206004820152601860248201527f50726f70657274793a2077616974696e67206e6f7461727900000000000000006044820152606401610408565b60068101805467ffffffffffffffff4216600160481b0271ffffffffffffffffff0000000000000000ff199091161771010000000000000000000000000000000002179055604051339084907fcf93094854a81f1a3d7c99633cff4dac98837e96ebc9d5529993dea33242cc6790600090a35061086260018055565b600081815260036020526040812054829103610b8a5760405162461bcd60e51b8152600401610408906118ea565b610b9261131a565b6000828152600360208190526040909120908101546001600160a01b03163314610bfe5760405162461bcd60e51b815260206004820152601b60248201527f50726f70657274793a2063616c6c6572206e6f74206e6f7461727900000000006044820152606401610408565b6000600682015460ff166005811115610c1957610c19611784565b14610c5f5760405162461bcd60e51b815260206004820152601660248201527550726f70657274793a2077726f6e672073746174757360501b6044820152606401610408565b60068101805467ffffffffffffffff4216600160481b0272ff00ffffffffffffffff0000000000000000ff19909116177201000000000000000000000000000000000001179055604051339084907f82866cd1a9b1d6aa81cf0e474ed67a8f5192e099b8254c88f32c1e44af73a31790600090a35061086260018055565b6000918252602082815260408084206001600160a01b0393909316845291905290205460ff1690565b6001600160a01b0381166000908152600560209081526040918290208054835181840281018401909452808452606093928301828280156103ce57602002820191906000526020600020908154815260200190600101908083116103ba5750505050509050919050565b600081815260036020526040812054829103610d9e5760405162461bcd60e51b8152600401610408906118ea565b610da661131a565b600082815260036020819052604090912090600682015460ff166005811115610dd157610dd1611784565b14610e155760405162461bcd60e51b8152602060048201526014602482015273141c9bdc195c9d1e4e881b9bdd081cd9585b195960621b6044820152606401610408565b60018101546001600160a01b0316331480610e3c575060028101546001600160a01b031633145b80610e6c5750610e6c7fd9d062b29c8756d894f301c5167d214c34d627724cd7fc859ab9329c9330cf5133610cdd565b610eb15760405162461bcd60e51b8152602060048201526016602482015275141c9bdc195c9d1e4e881d5b985d5d1a1bdc9a5e995960521b6044820152606401610408565b600601805467ffffffffffffffff4216600160481b0270ffffffffffffffff0000000000000000ff19909116176004179055505060018055565b600082815260208190526040902060010154610f0681611373565b6106038383611404565b6005602052816000526040600020818154811061062457600080fd5b6000610f3661131a565b6001600160a01b03831615801590610f5657506001600160a01b03821615155b610f9b5760405162461bcd60e51b815260206004820152601660248201527550726f70657274793a207a65726f206164647265737360501b6044820152606401610408565b610fc57f014df5ee2861d7f34562399ffa112fc59b51f810d2b875c3609ba0c31ac873d083610cdd565b6110115760405162461bcd60e51b815260206004820152601f60248201527f50726f70657274793a206e6f74617279206e6f7420617574686f72697a6564006044820152606401610408565b600280549060006110218361192d565b909155505060028054600081815260036020818152604080842085815560018082018054336001600160a01b0319918216811790925598830180548a166001600160a01b038e81169182179092559684018054909a16908c1690811790995560058084018e905560068401805470ffffffffffffffffffffffffffffffffff19811667ffffffffffffffff60481b194267ffffffffffffffff9081166101009081029283169390931768ffffffffffffffffff19909416919091179190910416600160481b021790558188526004865284882080548085018255908952868920018990558688528552838720805492830181558752958490200186905581519687529186018a905280519495919492939286927fc1aff1652b20e14e1d7f2d339ce74e3df41e7fb37adeece0b0104a3ea39c607a92908290030190a450905061116960018055565b9392505050565b60008181526003602052604081205482910361119e5760405162461bcd60e51b8152600401610408906118ea565b6111a661131a565b60008281526003602052604090206111de7fd9d062b29c8756d894f301c5167d214c34d627724cd7fc859ab9329c9330cf5133610cdd565b61122a5760405162461bcd60e51b815260206004820152601860248201527f50726f70657274793a2063616c6c6572206e6f7420676f7600000000000000006044820152606401610408565b6002600682015460ff16600581111561124557611245611784565b146112925760405162461bcd60e51b815260206004820152601760248201527f50726f70657274793a2077616974696e672062757965720000000000000000006044820152606401610408565b6004810180546001600160a01b031916339081179091556006820180546003600160981b0173ff0000ffffffffffffffff0000000000000000ff19909116600160481b4267ffffffffffffffff16021717905560405184907f8141be8ec42735c6d9b070a4eec645cee34c78cf73c7f5f23ae5de424dc7963f90600090a35061086260018055565b60026001540361136c5760405162461bcd60e51b815260206004820152601f60248201527f5265656e7472616e637947756172643a207265656e7472616e742063616c6c006044820152606401610408565b6002600155565b61137d8133611469565b50565b61138a8282610cdd565b610862576000828152602081815260408083206001600160a01b03851684529091529020805460ff191660011790556113c03390565b6001600160a01b0316816001600160a01b0316837f2f8788117e7eff1d82e926ec794901d17c78024a50270940304540a733656f0d60405160405180910390a45050565b61140e8282610cdd565b15610862576000828152602081815260408083206001600160a01b0385168085529252808320805460ff1916905551339285917ff6391f5c32d9c69d2a47ea670b442974b53935d1edc7fd64eb21e047a839171b9190a45050565b6114738282610cdd565b61086257611480816114c2565b61148b8360206114d4565b60405160200161149c92919061196a565b60408051601f198184030181529082905262461bcd60e51b8252610408916004016119df565b60606103686001600160a01b03831660145b606060006114e3836002611a12565b6114ee906002611a29565b67ffffffffffffffff81111561150657611506611a3c565b6040519080825280601f01601f191660200182016040528015611530576020820181803683370190505b509050600360fc1b8160008151811061154b5761154b611a52565b60200101906001600160f81b031916908160001a905350600f60fb1b8160018151811061157a5761157a611a52565b60200101906001600160f81b031916908160001a905350600061159e846002611a12565b6115a9906001611a29565b90505b6001811115611621576f181899199a1a9b1b9c1cb0b131b232b360811b85600f16601081106115dd576115dd611a52565b1a60f81b8282815181106115f3576115f3611a52565b60200101906001600160f81b031916908160001a90535060049490941c9361161a81611a68565b90506115ac565b5083156111695760405162461bcd60e51b815260206004820181905260248201527f537472696e67733a20686578206c656e67746820696e73756666696369656e746044820152606401610408565b60006020828403121561168257600080fd5b81356001600160e01b03198116811461116957600080fd5b80356001600160a01b03811681146116b157600080fd5b919050565b6000602082840312156116c857600080fd5b6111698261169a565b6020808252825182820181905260009190848201906040850190845b81811015611709578351835292840192918401916001016116ed565b50909695505050505050565b60006020828403121561172757600080fd5b5035919050565b6000806040838503121561174157600080fd5b823591506117516020840161169a565b90509250929050565b6000806040838503121561176d57600080fd5b6117768361169a565b946020939093013593505050565b634e487b7160e01b600052602160045260246000fd5b600681106117b857634e487b7160e01b600052602160045260246000fd5b9052565b815181526020808301516101808301916117e0908401826001600160a01b03169052565b5060408301516117fb60408401826001600160a01b03169052565b50606083015161181660608401826001600160a01b03169052565b50608083015161183160808401826001600160a01b03169052565b5060a083015160a083015260c083015161184e60c084018261179a565b5060e083015161186a60e084018267ffffffffffffffff169052565b506101008381015167ffffffffffffffff16908301526101208084015115159083015261014080840151151590830152610160928301511515929091019190915290565b6000806000606084860312156118c357600080fd5b833592506118d36020850161169a565b91506118e16040850161169a565b90509250925092565b602080825260139082015272141c9bdc195c9d1e4e881b9bdd08199bdd5b99606a1b604082015260600190565b634e487b7160e01b600052601160045260246000fd5b60006001820161193f5761193f611917565b5060010190565b60005b83811015611961578181015183820152602001611949565b50506000910152565b7f416363657373436f6e74726f6c3a206163636f756e74200000000000000000008152600083516119a2816017850160208801611946565b7001034b99036b4b9b9b4b733903937b6329607d1b60179184019182015283516119d3816028840160208801611946565b01602801949350505050565b60208152600082518060208401526119fe816040850160208701611946565b601f01601f19169190910160400192915050565b808202811582820484141761036857610368611917565b8082018082111561036857610368611917565b634e487b7160e01b600052604160045260246000fd5b634e487b7160e01b600052603260045260246000fd5b600081611a7757611a77611917565b50600019019056fea2646970667358221220a116cd78ebef66d017a9d2c0691da1189315275f8eeef142c298838f82e8d3a264736f6c63430008150033",
  "linkReferences": {},
  "deployedLinkReferences": {}
}